{
  "_format": "hh-sol-artifact-1",
  "contractName": "SimpleStorage",
  "sourceName": "contracts/simpleStorage.sol",
  "abi": [
    {
      "inputs": [
        {
          "internalType": "string",
          "name": "name",
          "type": "string"
        },
        {
          "internalType": "uint256",
          "name": "_favoriteNumber",
          "type": "uint256"
        }
      ],
      "name": "addPerson",
      "outputs": [],
      "stateMutability": "nonpayable",
      "type": "function"
    },
    {
      "inputs": [],
      "name": "favoriteNumber",
      "outputs": [
        {
          "internalType": "uint256",
          "name": "",
          "type": "uint256"
        }
      ],
      "stateMutability": "view",
      "type": "function"
    },
    {
      "inputs": [
        {
          "internalType": "string",
          "name": "",
          "type": "string"
        }
      ],
      "name": "nameToNumber",
      "outputs": [
        {
          "internalType": "uint256",
          "name": "",
          "type": "uint256"
        }
      ],
      "stateMutability": "view",
      "type": "function"
    },
    {
      "inputs": [
        {
          "internalType": "uint256",
          "name": "",
          "type": "uint256"
        }
      ],
      "name": "people",
      "outputs": [
        {
          "internalType": "uint256",
          "name": "favoriteNumber",
          "type": "uint256"
        },
        {
          "internalType": "string",
          "name": "name",
          "type": "string"
        }
      ],
      "stateMutability": "view",
      "type": "function"
    },
    {
      "inputs": [],
      "name": "person",
      "outputs": [
        {
          "internalType": "uint256",
          "name": "favoriteNumber",
          "type": "uint256"
        },
        {
          "internalType": "string",
          "name": "name",
          "type": "string"
        }
      ],
      "stateMutability": "view",
      "type": "function"
    },
    {
      "inputs": [],
      "name": "retrieve",
      "outputs": [
        {
          "internalType": "uint256",
          "name": "",
          "type": "uint256"
        }
      ],
      "stateMutability": "view",
      "type": "function"
    },
    {
      "inputs": [
        {
          "internalType": "uint256",
          "name": "_favNum",
          "type": "uint256"
        }
      ],
      "name": "store",
      "outputs": [],
      "stateMutability": "nonpayable",
      "type": "function"
    }
  ],
  "bytecode": "0x60806040526040518060400160405280601781526020016040518060400160405280600581526020017f576168616a000000000000000000000000000000000000000000000000000000815250815250600160008201518160000155602082015181600101908051906020019061007792919061008c565b50505034801561008657600080fd5b50610190565b8280546100989061012f565b90600052602060002090601f0160209004810192826100ba5760008555610101565b82601f106100d357805160ff1916838001178555610101565b82800160010185558215610101579182015b828111156101005782518255916020019190600101906100e5565b5b50905061010e9190610112565b5090565b5b8082111561012b576000816000905550600101610113565b5090565b6000600282049050600182168061014757607f821691505b6020821081141561015b5761015a610161565b5b50919050565b7f4e487b7100000000000000000000000000000000000000000000000000000000600052602260045260246000fd5b610aba8061019f6000396000f3fe608060405234801561001057600080fd5b506004361061007d5760003560e01c80636057361d1161005b5780636057361d146100ee5780636f760f411461010a57806377ec2b55146101265780639e7a13ad146101455761007d565b80632e64cec1146100825780632fae4ffd146100a0578063471f7cdf146100d0575b600080fd5b61008a610176565b6040516100979190610873565b60405180910390f35b6100ba60048036038101906100b59190610711565b610204565b6040516100c79190610873565b60405180910390f35b6100d8610232565b6040516100e59190610873565b60405180910390f35b610108600480360381019061010391906107b6565b610238565b005b610124600480360381019061011f919061075a565b6102c6565b005b61012e610490565b60405161013c92919061088e565b60405180910390f35b61015f600480360381019061015a91906107b6565b61052a565b60405161016d92919061088e565b60405180910390f35b60006101a47faba87aac438570dfe6c82831b0c5ece9beffd69e907904955ea19519d53636de60001b6105e6565b6101d07f3de8639127ee1b88c6ed7f908928e35657a0ccc2732e78f21b4a13883278ccb360001b6105e6565b6101fc7fd1d3831d95d846b6c4d38eac049d8ea965dfdcd57c2a746ef34755f27941c43f60001b6105e6565b600054905090565b6004818051602081018201805184825260208301602085012081835280955050505050506000915090505481565b60005481565b6102647f82329fdc38b4af352574fae798fdc75eb052ddaabc9ecb3707cda63cd5f8052060001b6105e6565b6102907f6ee8c1cb38a591ddf9204ea9d8fd13135a8e6e574f0b11eb54f58b17e33d487660001b6105e6565b6102bc7fae9b384babc04d87922bea364be1b2d77a60f2d6a30e0499cbc411a2f12188d460001b6105e6565b8060008190555050565b6102f27f149d1a45103b5a0fc8455017b903c6540636dde8f18490137159a478a929a70960001b6105e6565b61031e7f38f8a0ebdcf4bf3c6504fe2682f928dd5554f54bb4b7bededdc5254e2389259760001b6105e6565b61034a7f3cf6b590c91f166de21dfae401813beb77fcc6f08063e19c982cd11d0dc40d3e60001b6105e6565b6000604051806040016040528083815260200184815250905061038f7f2ceddd85b02da17f6e431818b7f768d96d843c68d7b29578a98affcd0c8aae2060001b6105e6565b6103bb7f2e5a2104f9d41432a74d75e19973129f058713b62e02e55403b8ed5d261c3e4c60001b6105e6565b600381908060018154018082558091505060019003906000526020600020906002020160009091909190915060008201518160000155602082015181600101908051906020019061040d9291906105e9565b50505061043c7fd52d7716290ee224f2ea99e5eb13829b01281e7ede7666f80b07e7eb831ce64c60001b6105e6565b6104687fe6b13303d7c1eaf7db0a65210284802fb9bb3e97193f5466b25f2a20b895352d60001b6105e6565b81600484604051610479919061085c565b908152602001604051809103902081905550505050565b60018060000154908060010180546104a790610987565b80601f01602080910402602001604051908101604052809291908181526020018280546104d390610987565b80156105205780601f106104f557610100808354040283529160200191610520565b820191906000526020600020905b81548152906001019060200180831161050357829003601f168201915b5050505050905082565b6003818154811061053a57600080fd5b906000526020600020906002020160009150905080600001549080600101805461056390610987565b80601f016020809104026020016040519081016040528092919081815260200182805461058f90610987565b80156105dc5780601f106105b1576101008083540402835291602001916105dc565b820191906000526020600020905b8154815290600101906020018083116105bf57829003601f168201915b5050505050905082565b50565b8280546105f590610987565b90600052602060002090601f016020900481019282610617576000855561065e565b82601f1061063057805160ff191683800117855561065e565b8280016001018555821561065e579182015b8281111561065d578251825591602001919060010190610642565b5b50905061066b919061066f565b5090565b5b80821115610688576000816000905550600101610670565b5090565b600061069f61069a846108e3565b6108be565b9050828152602081018484840111156106bb576106ba610a4d565b5b6106c6848285610945565b509392505050565b600082601f8301126106e3576106e2610a48565b5b81356106f384826020860161068c565b91505092915050565b60008135905061070b81610a6d565b92915050565b60006020828403121561072757610726610a57565b5b600082013567ffffffffffffffff81111561074557610744610a52565b5b610751848285016106ce565b91505092915050565b6000806040838503121561077157610770610a57565b5b600083013567ffffffffffffffff81111561078f5761078e610a52565b5b61079b858286016106ce565b92505060206107ac858286016106fc565b9150509250929050565b6000602082840312156107cc576107cb610a57565b5b60006107da848285016106fc565b91505092915050565b60006107ee82610914565b6107f8818561091f565b9350610808818560208601610954565b61081181610a5c565b840191505092915050565b600061082782610914565b6108318185610930565b9350610841818560208601610954565b80840191505092915050565b6108568161093b565b82525050565b6000610868828461081c565b915081905092915050565b6000602082019050610888600083018461084d565b92915050565b60006040820190506108a3600083018561084d565b81810360208301526108b581846107e3565b90509392505050565b60006108c86108d9565b90506108d482826109b9565b919050565b6000604051905090565b600067ffffffffffffffff8211156108fe576108fd610a19565b5b61090782610a5c565b9050602081019050919050565b600081519050919050565b600082825260208201905092915050565b600081905092915050565b6000819050919050565b82818337600083830152505050565b60005b83811015610972578082015181840152602081019050610957565b83811115610981576000848401525b50505050565b6000600282049050600182168061099f57607f821691505b602082108114156109b3576109b26109ea565b5b50919050565b6109c282610a5c565b810181811067ffffffffffffffff821117156109e1576109e0610a19565b5b80604052505050565b7f4e487b7100000000000000000000000000000000000000000000000000000000600052602260045260246000fd5b7f4e487b7100000000000000000000000000000000000000000000000000000000600052604160045260246000fd5b600080fd5b600080fd5b600080fd5b600080fd5b6000601f19601f8301169050919050565b610a768161093b565b8114610a8157600080fd5b5056fea26469706673582212203e0fc70b77b51069d1cfda1940b741364a7d7e4d0c4d0047b94853057cfd1c2664736f6c63430008070033",
  "linkReferences": {},
  "deployedLinkReferences": {}
}