{
  "_format": "hh-sol-artifact-1",
  "contractName": "Raffle",
  "sourceName": "contracts/Raffle.sol",
  "abi": [
    {
      "inputs": [
        {
          "internalType": "address",
          "name": "VRFCoordinatorV2",
          "type": "address"
        },
        {
          "internalType": "uint256",
          "name": "entranceFee",
          "type": "uint256"
        },
        {
          "internalType": "bytes32",
          "name": "gasLane",
          "type": "bytes32"
        },
        {
          "internalType": "uint64",
          "name": "subscriptionId",
          "type": "uint64"
        },
        {
          "internalType": "uint32",
          "name": "callbackGasLimit",
          "type": "uint32"
        },
        {
          "internalType": "uint256",
          "name": "interval",
          "type": "uint256"
        }
      ],
      "stateMutability": "nonpayable",
      "type": "constructor"
    },
    {
      "inputs": [
        {
          "internalType": "address",
          "name": "have",
          "type": "address"
        },
        {
          "internalType": "address",
          "name": "want",
          "type": "address"
        }
      ],
      "name": "OnlyCoordinatorCanFulfill",
      "type": "error"
    },
    {
      "inputs": [
        {
          "internalType": "uint256",
          "name": "currentBalance",
          "type": "uint256"
        },
        {
          "internalType": "uint256",
          "name": "numPlayers",
          "type": "uint256"
        },
        {
          "internalType": "uint256",
          "name": "raffleState",
          "type": "uint256"
        }
      ],
      "name": "Raffle__UpKeepNotNeeded",
      "type": "error"
    },
    {
      "inputs": [],
      "name": "Raffle__notEnoughETH",
      "type": "error"
    },
    {
      "inputs": [],
      "name": "Raffle__notOpen",
      "type": "error"
    },
    {
      "inputs": [],
      "name": "Raffle__transferFailed",
      "type": "error"
    },
    {
      "anonymous": false,
      "inputs": [
        {
          "indexed": true,
          "internalType": "address",
          "name": "winner",
          "type": "address"
        }
      ],
      "name": "WinnerPicked",
      "type": "event"
    },
    {
      "anonymous": false,
      "inputs": [
        {
          "indexed": true,
          "internalType": "address",
          "name": "player",
          "type": "address"
        }
      ],
      "name": "raffleEnter",
      "type": "event"
    },
    {
      "anonymous": false,
      "inputs": [
        {
          "indexed": true,
          "internalType": "uint256",
          "name": "requestId",
          "type": "uint256"
        }
      ],
      "name": "requestedRaffleWinner",
      "type": "event"
    },
    {
      "inputs": [
        {
          "internalType": "bytes",
          "name": "",
          "type": "bytes"
        }
      ],
      "name": "checkUpkeep",
      "outputs": [
        {
          "internalType": "bool",
          "name": "upkeepNeeded",
          "type": "bool"
        },
        {
          "internalType": "bytes",
          "name": "",
          "type": "bytes"
        }
      ],
      "stateMutability": "view",
      "type": "function"
    },
    {
      "inputs": [],
      "name": "enterRaffle",
      "outputs": [],
      "stateMutability": "payable",
      "type": "function"
    },
    {
      "inputs": [],
      "name": "getEntranceFee",
      "outputs": [
        {
          "internalType": "uint256",
          "name": "",
          "type": "uint256"
        }
      ],
      "stateMutability": "view",
      "type": "function"
    },
    {
      "inputs": [],
      "name": "getInterval",
      "outputs": [
        {
          "internalType": "uint256",
          "name": "",
          "type": "uint256"
        }
      ],
      "stateMutability": "view",
      "type": "function"
    },
    {
      "inputs": [],
      "name": "getLastTimeStamp",
      "outputs": [
        {
          "internalType": "uint256",
          "name": "",
          "type": "uint256"
        }
      ],
      "stateMutability": "view",
      "type": "function"
    },
    {
      "inputs": [],
      "name": "getNumberOfPlayers",
      "outputs": [
        {
          "internalType": "uint256",
          "name": "",
          "type": "uint256"
        }
      ],
      "stateMutability": "view",
      "type": "function"
    },
    {
      "inputs": [
        {
          "internalType": "uint256",
          "name": "index",
          "type": "uint256"
        }
      ],
      "name": "getPlayer",
      "outputs": [
        {
          "internalType": "address",
          "name": "",
          "type": "address"
        }
      ],
      "stateMutability": "view",
      "type": "function"
    },
    {
      "inputs": [],
      "name": "getRaffleState",
      "outputs": [
        {
          "internalType": "enum Raffle.RaffleState",
          "name": "",
          "type": "uint8"
        }
      ],
      "stateMutability": "view",
      "type": "function"
    },
    {
      "inputs": [],
      "name": "getRecentWinner",
      "outputs": [
        {
          "internalType": "address",
          "name": "",
          "type": "address"
        }
      ],
      "stateMutability": "view",
      "type": "function"
    },
    {
      "inputs": [
        {
          "internalType": "bytes",
          "name": "",
          "type": "bytes"
        }
      ],
      "name": "performUpkeep",
      "outputs": [],
      "stateMutability": "nonpayable",
      "type": "function"
    },
    {
      "inputs": [
        {
          "internalType": "uint256",
          "name": "requestId",
          "type": "uint256"
        },
        {
          "internalType": "uint256[]",
          "name": "randomWords",
          "type": "uint256[]"
        }
      ],
      "name": "rawFulfillRandomWords",
      "outputs": [],
      "stateMutability": "nonpayable",
      "type": "function"
    }
  ],
  "bytecode": "0x6101606040523480156200001257600080fd5b50604051620017d6380380620017d68339818101604052810190620000389190620002a0565b858073ffffffffffffffffffffffffffffffffffffffff1660808173ffffffffffffffffffffffffffffffffffffffff1660601b81525050508460a081815250508573ffffffffffffffffffffffffffffffffffffffff1660c08173ffffffffffffffffffffffffffffffffffffffff1660601b815250508360e081815250508267ffffffffffffffff166101008167ffffffffffffffff1660c01b815250508163ffffffff166101208163ffffffff1660e01b815250506000600260146101000a81548160ff021916908360018111156200011957620001186200033c565b5b0217905550426003819055508061014081815250505050505050506200036b565b600080fd5b600073ffffffffffffffffffffffffffffffffffffffff82169050919050565b60006200016c826200013f565b9050919050565b6200017e816200015f565b81146200018a57600080fd5b50565b6000815190506200019e8162000173565b92915050565b6000819050919050565b620001b981620001a4565b8114620001c557600080fd5b50565b600081519050620001d981620001ae565b92915050565b6000819050919050565b620001f481620001df565b81146200020057600080fd5b50565b6000815190506200021481620001e9565b92915050565b600067ffffffffffffffff82169050919050565b62000239816200021a565b81146200024557600080fd5b50565b60008151905062000259816200022e565b92915050565b600063ffffffff82169050919050565b6200027a816200025f565b81146200028657600080fd5b50565b6000815190506200029a816200026f565b92915050565b60008060008060008060c08789031215620002c057620002bf6200013a565b5b6000620002d089828a016200018d565b9650506020620002e389828a01620001c8565b9550506040620002f689828a0162000203565b94505060606200030989828a0162000248565b93505060806200031c89828a0162000289565b92505060a06200032f89828a01620001c8565b9150509295509295509295565b7f4e487b7100000000000000000000000000000000000000000000000000000000600052602160045260246000fd5b60805160601c60a05160c05160601c60e0516101005160c01c6101205160e01c610140516113ef620003e76000396000818161075501526107fe01526000610620015260006105fd015260006105dc015260006105a001526000818161027e015261037b0152600081816102bb015261030f01526113ef6000f3fe60806040526004361061009c5760003560e01c8063473f1ddc11610064578063473f1ddc146101535780636e04ff0d1461017e57806391ad27b4146101bc578063c1c244e8146101e7578063e55ae4e814610212578063fd6673f51461024f5761009c565b806309bc33a7146100a1578063115cbaf5146100cc5780631fe543e3146100f75780632cfcc539146101205780634585e33b1461012a575b600080fd5b3480156100ad57600080fd5b506100b661027a565b6040516100c39190610b70565b60405180910390f35b3480156100d857600080fd5b506100e16102a2565b6040516100ee9190610c02565b60405180910390f35b34801561010357600080fd5b5061011e60048036038101906101199190610db6565b6102b9565b005b610128610379565b005b34801561013657600080fd5b50610151600480360381019061014c9190610e6d565b6104e8565b005b34801561015f57600080fd5b506101686106e8565b6040516101759190610efb565b60405180910390f35b34801561018a57600080fd5b506101a560048036038101906101a09190610fcb565b610712565b6040516101b39291906110b7565b60405180910390f35b3480156101c857600080fd5b506101d16107fa565b6040516101de9190610b70565b60405180910390f35b3480156101f357600080fd5b506101fc610822565b6040516102099190610b70565b60405180910390f35b34801561021e57600080fd5b50610239600480360381019061023491906110e7565b61082c565b6040516102469190610efb565b60405180910390f35b34801561025b57600080fd5b50610264610873565b6040516102719190610b70565b60405180910390f35b60007f0000000000000000000000000000000000000000000000000000000000000000905090565b6000600260149054906101000a900460ff16905090565b7f000000000000000000000000000000000000000000000000000000000000000073ffffffffffffffffffffffffffffffffffffffff163373ffffffffffffffffffffffffffffffffffffffff161461036b57337f00000000000000000000000000000000000000000000000000000000000000006040517f1cf993f4000000000000000000000000000000000000000000000000000000008152600401610362929190611114565b60405180910390fd5b610375828261087f565b5050565b7f00000000000000000000000000000000000000000000000000000000000000003410156103d3576040517ff034c95800000000000000000000000000000000000000000000000000000000815260040160405180910390fd5b600060018111156103e7576103e6610b8b565b5b600260149054906101000a900460ff16600181111561040957610408610b8b565b5b14610440576040517f4ff3426e00000000000000000000000000000000000000000000000000000000815260040160405180910390fd5b6000339080600181540180825580915050600190039060005260206000200160009091909190916101000a81548173ffffffffffffffffffffffffffffffffffffffff021916908373ffffffffffffffffffffffffffffffffffffffff1602179055503373ffffffffffffffffffffffffffffffffffffffff167f742d070bf0f3edace132a9da8ba725e8cf99c478869cee7f673ed6085e2f8e6460405160405180910390a2565b600061050260405180602001604052806000815250610712565b509050806105715747600080549050600260149054906101000a900460ff16600181111561053357610532610b8b565b5b6040517f3a8d60860000000000000000000000000000000000000000000000000000000081526004016105689392919061113d565b60405180910390fd5b6001600260146101000a81548160ff0219169083600181111561059757610596610b8b565b5b021790555060007f000000000000000000000000000000000000000000000000000000000000000073ffffffffffffffffffffffffffffffffffffffff16635d3b1d307f00000000000000000000000000000000000000000000000000000000000000007f000000000000000000000000000000000000000000000000000000000000000060037f000000000000000000000000000000000000000000000000000000000000000060016040518663ffffffff1660e01b81526004016106619594939291906111ec565b602060405180830381600087803b15801561067b57600080fd5b505af115801561068f573d6000803e3d6000fd5b505050506040513d601f19601f820116820180604052508101906106b39190611254565b9050807fe0abfa81226f1e2ce09ba287cbb4c241e89b2b891a389274bb7d9c46e344daf060405160405180910390a250505050565b6000600260009054906101000a900473ffffffffffffffffffffffffffffffffffffffff16905090565b600060606000600260149054906101000a900460ff16600181111561073a57610739610b8b565b5b6000600181111561074e5761074d610b8b565b5b14905060007f00000000000000000000000000000000000000000000000000000000000000006003544261078291906112b0565b119050600080600080549050119050600080471190508380156107a25750825b80156107ab5750815b80156107b45750805b9550856040518060400160405280600381526020017f30783000000000000000000000000000000000000000000000000000000000008152509550955050505050915091565b60007f0000000000000000000000000000000000000000000000000000000000000000905090565b6000600354905090565b6000808281548110610841576108406112e4565b5b9060005260206000200160009054906101000a900473ffffffffffffffffffffffffffffffffffffffff169050919050565b60008080549050905090565b600080805490508260008151811061089a576108996112e4565b5b60200260200101516108ac9190611342565b905060008082815481106108c3576108c26112e4565b5b9060005260206000200160009054906101000a900473ffffffffffffffffffffffffffffffffffffffff16905080600260006101000a81548173ffffffffffffffffffffffffffffffffffffffff021916908373ffffffffffffffffffffffffffffffffffffffff1602179055506000600260146101000a81548160ff0219169083600181111561095757610956610b8b565b5b0217905550600067ffffffffffffffff81111561097757610976610c73565b5b6040519080825280602002602001820160405280156109a55781602001602082028036833780820191505090505b50600090805190602001906109bb929190610ab0565b504260038190555060008173ffffffffffffffffffffffffffffffffffffffff16476040516109e9906113a4565b60006040518083038185875af1925050503d8060008114610a26576040519150601f19603f3d011682016040523d82523d6000602084013e610a2b565b606091505b5050905080610a66576040517f9594d81300000000000000000000000000000000000000000000000000000000815260040160405180910390fd5b8173ffffffffffffffffffffffffffffffffffffffff167f5b690ec4a06fe979403046eaeea5b3ce38524683c3001f662c8b5a829632f7df60405160405180910390a25050505050565b828054828255906000526020600020908101928215610b29579160200282015b82811115610b285782518260006101000a81548173ffffffffffffffffffffffffffffffffffffffff021916908373ffffffffffffffffffffffffffffffffffffffff16021790555091602001919060010190610ad0565b5b509050610b369190610b3a565b5090565b5b80821115610b53576000816000905550600101610b3b565b5090565b6000819050919050565b610b6a81610b57565b82525050565b6000602082019050610b856000830184610b61565b92915050565b7f4e487b7100000000000000000000000000000000000000000000000000000000600052602160045260246000fd5b60028110610bcb57610bca610b8b565b5b50565b6000819050610bdc82610bba565b919050565b6000610bec82610bce565b9050919050565b610bfc81610be1565b82525050565b6000602082019050610c176000830184610bf3565b92915050565b6000604051905090565b600080fd5b600080fd5b610c3a81610b57565b8114610c4557600080fd5b50565b600081359050610c5781610c31565b92915050565b600080fd5b6000601f19601f8301169050919050565b7f4e487b7100000000000000000000000000000000000000000000000000000000600052604160045260246000fd5b610cab82610c62565b810181811067ffffffffffffffff82111715610cca57610cc9610c73565b5b80604052505050565b6000610cdd610c1d565b9050610ce98282610ca2565b919050565b600067ffffffffffffffff821115610d0957610d08610c73565b5b602082029050602081019050919050565b600080fd5b6000610d32610d2d84610cee565b610cd3565b90508083825260208201905060208402830185811115610d5557610d54610d1a565b5b835b81811015610d7e5780610d6a8882610c48565b845260208401935050602081019050610d57565b5050509392505050565b600082601f830112610d9d57610d9c610c5d565b5b8135610dad848260208601610d1f565b91505092915050565b60008060408385031215610dcd57610dcc610c27565b5b6000610ddb85828601610c48565b925050602083013567ffffffffffffffff811115610dfc57610dfb610c2c565b5b610e0885828601610d88565b9150509250929050565b600080fd5b60008083601f840112610e2d57610e2c610c5d565b5b8235905067ffffffffffffffff811115610e4a57610e49610e12565b5b602083019150836001820283011115610e6657610e65610d1a565b5b9250929050565b60008060208385031215610e8457610e83610c27565b5b600083013567ffffffffffffffff811115610ea257610ea1610c2c565b5b610eae85828601610e17565b92509250509250929050565b600073ffffffffffffffffffffffffffffffffffffffff82169050919050565b6000610ee582610eba565b9050919050565b610ef581610eda565b82525050565b6000602082019050610f106000830184610eec565b92915050565b600080fd5b600067ffffffffffffffff821115610f3657610f35610c73565b5b610f3f82610c62565b9050602081019050919050565b82818337600083830152505050565b6000610f6e610f6984610f1b565b610cd3565b905082815260208101848484011115610f8a57610f89610f16565b5b610f95848285610f4c565b509392505050565b600082601f830112610fb257610fb1610c5d565b5b8135610fc2848260208601610f5b565b91505092915050565b600060208284031215610fe157610fe0610c27565b5b600082013567ffffffffffffffff811115610fff57610ffe610c2c565b5b61100b84828501610f9d565b91505092915050565b60008115159050919050565b61102981611014565b82525050565b600081519050919050565b600082825260208201905092915050565b60005b8381101561106957808201518184015260208101905061104e565b83811115611078576000848401525b50505050565b60006110898261102f565b611093818561103a565b93506110a381856020860161104b565b6110ac81610c62565b840191505092915050565b60006040820190506110cc6000830185611020565b81810360208301526110de818461107e565b90509392505050565b6000602082840312156110fd576110fc610c27565b5b600061110b84828501610c48565b91505092915050565b60006040820190506111296000830185610eec565b6111366020830184610eec565b9392505050565b60006060820190506111526000830186610b61565b61115f6020830185610b61565b61116c6040830184610b61565b949350505050565b6000819050919050565b61118781611174565b82525050565b600067ffffffffffffffff82169050919050565b6111aa8161118d565b82525050565b600061ffff82169050919050565b6111c7816111b0565b82525050565b600063ffffffff82169050919050565b6111e6816111cd565b82525050565b600060a082019050611201600083018861117e565b61120e60208301876111a1565b61121b60408301866111be565b61122860608301856111dd565b61123560808301846111dd565b9695505050505050565b60008151905061124e81610c31565b92915050565b60006020828403121561126a57611269610c27565b5b60006112788482850161123f565b91505092915050565b7f4e487b7100000000000000000000000000000000000000000000000000000000600052601160045260246000fd5b60006112bb82610b57565b91506112c683610b57565b9250828210156112d9576112d8611281565b5b828203905092915050565b7f4e487b7100000000000000000000000000000000000000000000000000000000600052603260045260246000fd5b7f4e487b7100000000000000000000000000000000000000000000000000000000600052601260045260246000fd5b600061134d82610b57565b915061135883610b57565b92508261136857611367611313565b5b828206905092915050565b600081905092915050565b50565b600061138e600083611373565b91506113998261137e565b600082019050919050565b60006113af82611381565b915081905091905056fea26469706673582212209fc102566cdd94468b3fb0c075e6b11eabeea8dfbe8aca14695db47e003348d264736f6c63430008080033",
  "linkReferences": {},
  "deployedLinkReferences": {}
}