{
  "_format": "hh-sol-artifact-1",
  "contractName": "DynamicSVGNFT",
  "sourceName": "contracts/DynamicSVGNFT.sol",
  "abi": [
    {
      "inputs": [
        {
          "internalType": "address",
          "name": "priceFeedAddress",
          "type": "address"
        },
        {
          "internalType": "string",
          "name": "lowSvg",
          "type": "string"
        },
        {
          "internalType": "string",
          "name": "highSvg",
          "type": "string"
        }
      ],
      "stateMutability": "nonpayable",
      "type": "constructor"
    },
    {
      "anonymous": false,
      "inputs": [
        {
          "indexed": true,
          "internalType": "address",
          "name": "owner",
          "type": "address"
        },
        {
          "indexed": true,
          "internalType": "address",
          "name": "approved",
          "type": "address"
        },
        {
          "indexed": true,
          "internalType": "uint256",
          "name": "tokenId",
          "type": "uint256"
        }
      ],
      "name": "Approval",
      "type": "event"
    },
    {
      "anonymous": false,
      "inputs": [
        {
          "indexed": true,
          "internalType": "address",
          "name": "owner",
          "type": "address"
        },
        {
          "indexed": true,
          "internalType": "address",
          "name": "operator",
          "type": "address"
        },
        {
          "indexed": false,
          "internalType": "bool",
          "name": "approved",
          "type": "bool"
        }
      ],
      "name": "ApprovalForAll",
      "type": "event"
    },
    {
      "anonymous": false,
      "inputs": [
        {
          "indexed": true,
          "internalType": "uint256",
          "name": "tokenId",
          "type": "uint256"
        },
        {
          "indexed": false,
          "internalType": "int256",
          "name": "highValue",
          "type": "int256"
        }
      ],
      "name": "CreatedNFT",
      "type": "event"
    },
    {
      "anonymous": false,
      "inputs": [
        {
          "indexed": true,
          "internalType": "address",
          "name": "from",
          "type": "address"
        },
        {
          "indexed": true,
          "internalType": "address",
          "name": "to",
          "type": "address"
        },
        {
          "indexed": true,
          "internalType": "uint256",
          "name": "tokenId",
          "type": "uint256"
        }
      ],
      "name": "Transfer",
      "type": "event"
    },
    {
      "inputs": [
        {
          "internalType": "address",
          "name": "to",
          "type": "address"
        },
        {
          "internalType": "uint256",
          "name": "tokenId",
          "type": "uint256"
        }
      ],
      "name": "approve",
      "outputs": [],
      "stateMutability": "nonpayable",
      "type": "function"
    },
    {
      "inputs": [
        {
          "internalType": "address",
          "name": "owner",
          "type": "address"
        }
      ],
      "name": "balanceOf",
      "outputs": [
        {
          "internalType": "uint256",
          "name": "",
          "type": "uint256"
        }
      ],
      "stateMutability": "view",
      "type": "function"
    },
    {
      "inputs": [
        {
          "internalType": "uint256",
          "name": "tokenId",
          "type": "uint256"
        }
      ],
      "name": "getApproved",
      "outputs": [
        {
          "internalType": "address",
          "name": "",
          "type": "address"
        }
      ],
      "stateMutability": "view",
      "type": "function"
    },
    {
      "inputs": [],
      "name": "getHighSVG",
      "outputs": [
        {
          "internalType": "string",
          "name": "",
          "type": "string"
        }
      ],
      "stateMutability": "view",
      "type": "function"
    },
    {
      "inputs": [],
      "name": "getLowSVG",
      "outputs": [
        {
          "internalType": "string",
          "name": "",
          "type": "string"
        }
      ],
      "stateMutability": "view",
      "type": "function"
    },
    {
      "inputs": [],
      "name": "getPriceFeed",
      "outputs": [
        {
          "internalType": "contract AggregatorV3Interface",
          "name": "",
          "type": "address"
        }
      ],
      "stateMutability": "view",
      "type": "function"
    },
    {
      "inputs": [],
      "name": "getTokenCounter",
      "outputs": [
        {
          "internalType": "uint256",
          "name": "",
          "type": "uint256"
        }
      ],
      "stateMutability": "view",
      "type": "function"
    },
    {
      "inputs": [
        {
          "internalType": "address",
          "name": "owner",
          "type": "address"
        },
        {
          "internalType": "address",
          "name": "operator",
          "type": "address"
        }
      ],
      "name": "isApprovedForAll",
      "outputs": [
        {
          "internalType": "bool",
          "name": "",
          "type": "bool"
        }
      ],
      "stateMutability": "view",
      "type": "function"
    },
    {
      "inputs": [
        {
          "internalType": "int256",
          "name": "highValue",
          "type": "int256"
        }
      ],
      "name": "mintNFT",
      "outputs": [],
      "stateMutability": "nonpayable",
      "type": "function"
    },
    {
      "inputs": [],
      "name": "name",
      "outputs": [
        {
          "internalType": "string",
          "name": "",
          "type": "string"
        }
      ],
      "stateMutability": "view",
      "type": "function"
    },
    {
      "inputs": [
        {
          "internalType": "uint256",
          "name": "tokenId",
          "type": "uint256"
        }
      ],
      "name": "ownerOf",
      "outputs": [
        {
          "internalType": "address",
          "name": "",
          "type": "address"
        }
      ],
      "stateMutability": "view",
      "type": "function"
    },
    {
      "inputs": [
        {
          "internalType": "uint256",
          "name": "",
          "type": "uint256"
        }
      ],
      "name": "s_tokenIdToHighValue",
      "outputs": [
        {
          "internalType": "int256",
          "name": "",
          "type": "int256"
        }
      ],
      "stateMutability": "view",
      "type": "function"
    },
    {
      "inputs": [
        {
          "internalType": "address",
          "name": "from",
          "type": "address"
        },
        {
          "internalType": "address",
          "name": "to",
          "type": "address"
        },
        {
          "internalType": "uint256",
          "name": "tokenId",
          "type": "uint256"
        }
      ],
      "name": "safeTransferFrom",
      "outputs": [],
      "stateMutability": "nonpayable",
      "type": "function"
    },
    {
      "inputs": [
        {
          "internalType": "address",
          "name": "from",
          "type": "address"
        },
        {
          "internalType": "address",
          "name": "to",
          "type": "address"
        },
        {
          "internalType": "uint256",
          "name": "tokenId",
          "type": "uint256"
        },
        {
          "internalType": "bytes",
          "name": "data",
          "type": "bytes"
        }
      ],
      "name": "safeTransferFrom",
      "outputs": [],
      "stateMutability": "nonpayable",
      "type": "function"
    },
    {
      "inputs": [
        {
          "internalType": "address",
          "name": "operator",
          "type": "address"
        },
        {
          "internalType": "bool",
          "name": "approved",
          "type": "bool"
        }
      ],
      "name": "setApprovalForAll",
      "outputs": [],
      "stateMutability": "nonpayable",
      "type": "function"
    },
    {
      "inputs": [
        {
          "internalType": "bytes4",
          "name": "interfaceId",
          "type": "bytes4"
        }
      ],
      "name": "supportsInterface",
      "outputs": [
        {
          "internalType": "bool",
          "name": "",
          "type": "bool"
        }
      ],
      "stateMutability": "view",
      "type": "function"
    },
    {
      "inputs": [
        {
          "internalType": "string",
          "name": "svg",
          "type": "string"
        }
      ],
      "name": "svgToImageURI",
      "outputs": [
        {
          "internalType": "string",
          "name": "",
          "type": "string"
        }
      ],
      "stateMutability": "pure",
      "type": "function"
    },
    {
      "inputs": [],
      "name": "symbol",
      "outputs": [
        {
          "internalType": "string",
          "name": "",
          "type": "string"
        }
      ],
      "stateMutability": "view",
      "type": "function"
    },
    {
      "inputs": [
        {
          "internalType": "uint256",
          "name": "tokenId",
          "type": "uint256"
        }
      ],
      "name": "tokenURI",
      "outputs": [
        {
          "internalType": "string",
          "name": "",
          "type": "string"
        }
      ],
      "stateMutability": "view",
      "type": "function"
    },
    {
      "inputs": [
        {
          "internalType": "address",
          "name": "from",
          "type": "address"
        },
        {
          "internalType": "address",
          "name": "to",
          "type": "address"
        },
        {
          "internalType": "uint256",
          "name": "tokenId",
          "type": "uint256"
        }
      ],
      "name": "transferFrom",
      "outputs": [],
      "stateMutability": "nonpayable",
      "type": "function"
    }
  ],
  "bytecode": "0x60a06040523480156200001157600080fd5b5060405162003a2538038062003a2583398181016040528101906200003791906200064f565b6040518060400160405280600f81526020017f44796e616d696320535647204e465400000000000000000000000000000000008152506040518060400160405280600381526020017f44534e00000000000000000000000000000000000000000000000000000000008152508160009080519060200190620000bb9291906200039d565b508060019080519060200190620000d49291906200039d565b5050506000600681905550620000f0826200017160201b60201c565b60079080519060200190620001079291906200039d565b5062000119816200017160201b60201c565b60089080519060200190620001309291906200039d565b508273ffffffffffffffffffffffffffffffffffffffff1660808173ffffffffffffffffffffffffffffffffffffffff1660601b815250505050506200093a565b60606000620001ac836040516020016200018c919062000736565b6040516020818303038152906040526200020f60201b62000f7d1760201c565b90506040518060400160405280601a81526020017f646174613a696d6167652f7376672b786d6c3b6261736536342c00000000000081525081604051602001620001f89291906200074f565b604051602081830303815290604052915050919050565b6060600082511415620002345760405180602001604052806000815250905062000398565b6000604051806060016040528060408152602001620039e56040913990506000600360028551620002669190620007b0565b6200027291906200083c565b600462000280919062000874565b90506000602082620002939190620007b0565b67ffffffffffffffff811115620002af57620002ae620004e1565b5b6040519080825280601f01601f191660200182016040528015620002e25781602001600182028036833780820191505090505b509050818152600183018586518101602084015b8183101562000353576003830192508251603f8160121c168501518253600182019150603f81600c1c168501518253600182019150603f8160061c168501518253600182019150603f8116850151825360018201915050620002f6565b60038951066001811462000370576002811462000381576200038c565b613d3d60f01b60028303526200038c565b603d60f81b60018303525b50505050508093505050505b919050565b828054620003ab9062000904565b90600052602060002090601f016020900481019282620003cf57600085556200041b565b82601f10620003ea57805160ff19168380011785556200041b565b828001600101855582156200041b579182015b828111156200041a578251825591602001919060010190620003fd565b5b5090506200042a91906200042e565b5090565b5b80821115620004495760008160009055506001016200042f565b5090565b6000604051905090565b600080fd5b600080fd5b600073ffffffffffffffffffffffffffffffffffffffff82169050919050565b60006200048e8262000461565b9050919050565b620004a08162000481565b8114620004ac57600080fd5b50565b600081519050620004c08162000495565b92915050565b600080fd5b600080fd5b6000601f19601f8301169050919050565b7f4e487b7100000000000000000000000000000000000000000000000000000000600052604160045260246000fd5b6200051b82620004d0565b810181811067ffffffffffffffff821117156200053d576200053c620004e1565b5b80604052505050565b6000620005526200044d565b905062000560828262000510565b919050565b600067ffffffffffffffff821115620005835762000582620004e1565b5b6200058e82620004d0565b9050602081019050919050565b60005b83811015620005bb5780820151818401526020810190506200059e565b83811115620005cb576000848401525b50505050565b6000620005e8620005e28462000565565b62000546565b905082815260208101848484011115620006075762000606620004cb565b5b620006148482856200059b565b509392505050565b600082601f830112620006345762000633620004c6565b5b815162000646848260208601620005d1565b91505092915050565b6000806000606084860312156200066b576200066a62000457565b5b60006200067b86828701620004af565b935050602084015167ffffffffffffffff8111156200069f576200069e6200045c565b5b620006ad868287016200061c565b925050604084015167ffffffffffffffff811115620006d157620006d06200045c565b5b620006df868287016200061c565b9150509250925092565b600081519050919050565b600081905092915050565b60006200070c82620006e9565b620007188185620006f4565b93506200072a8185602086016200059b565b80840191505092915050565b6000620007448284620006ff565b915081905092915050565b60006200075d8285620006ff565b91506200076b8284620006ff565b91508190509392505050565b6000819050919050565b7f4e487b7100000000000000000000000000000000000000000000000000000000600052601160045260246000fd5b6000620007bd8262000777565b9150620007ca8362000777565b9250827fffffffffffffffffffffffffffffffffffffffffffffffffffffffffffffffff0382111562000802576200080162000781565b5b828201905092915050565b7f4e487b7100000000000000000000000000000000000000000000000000000000600052601260045260246000fd5b6000620008498262000777565b9150620008568362000777565b9250826200086957620008686200080d565b5b828204905092915050565b6000620008818262000777565b91506200088e8362000777565b9250817fffffffffffffffffffffffffffffffffffffffffffffffffffffffffffffffff0483118215151615620008ca57620008c962000781565b5b828202905092915050565b7f4e487b7100000000000000000000000000000000000000000000000000000000600052602260045260246000fd5b600060028204905060018216806200091d57607f821691505b60208210811415620009345762000933620008d5565b5b50919050565b60805160601c6130856200096060003960008181610a880152610b8601526130856000f3fe608060405234801561001057600080fd5b506004361061012c5760003560e01c806376f6056b116100ad578063c87b56dd11610071578063c87b56dd14610343578063e2ed50cb14610373578063e425aded1461038f578063e985e9c5146103bf578063ed28a122146103ef5761012c565b806376f6056b146102b157806395d89b41146102cf5780639e87a5cd146102ed578063a22cb4651461030b578063b88d4fde146103275761012c565b806330d871c6116100f457806330d871c6146101e757806342842e0e146102175780636352211e146102335780636e02007d1461026357806370a08231146102815761012c565b806301ffc9a71461013157806306fdde0314610161578063081812fc1461017f578063095ea7b3146101af57806323b872dd146101cb575b600080fd5b61014b60048036038101906101469190611c5d565b61040d565b6040516101589190611ca5565b60405180910390f35b6101696104ef565b6040516101769190611d59565b60405180910390f35b61019960048036038101906101949190611db1565b610581565b6040516101a69190611e1f565b60405180910390f35b6101c960048036038101906101c49190611e66565b6105c7565b005b6101e560048036038101906101e09190611ea6565b6106df565b005b61020160048036038101906101fc919061202e565b61073f565b60405161020e9190611d59565b60405180910390f35b610231600480360381019061022c9190611ea6565b6107cc565b005b61024d60048036038101906102489190611db1565b6107ec565b60405161025a9190611e1f565b60405180910390f35b61026b61089e565b6040516102789190612086565b60405180910390f35b61029b600480360381019061029691906120a1565b6108a8565b6040516102a89190612086565b60405180910390f35b6102b9610960565b6040516102c69190611d59565b60405180910390f35b6102d76109f2565b6040516102e49190611d59565b60405180910390f35b6102f5610a84565b604051610302919061212d565b60405180910390f35b61032560048036038101906103209190612174565b610aac565b005b610341600480360381019061033c9190612255565b610ac2565b005b61035d60048036038101906103589190611db1565b610b24565b60405161036a9190611d59565b60405180910390f35b61038d6004803603810190610388919061230e565b610dc4565b005b6103a960048036038101906103a49190611db1565b610e3f565b6040516103b6919061234a565b60405180910390f35b6103d960048036038101906103d49190612365565b610e57565b6040516103e69190611ca5565b60405180910390f35b6103f7610eeb565b6040516104049190611d59565b60405180910390f35b60007f80ac58cd000000000000000000000000000000000000000000000000000000007bffffffffffffffffffffffffffffffffffffffffffffffffffffffff1916827bffffffffffffffffffffffffffffffffffffffffffffffffffffffff191614806104d857507f5b5e139f000000000000000000000000000000000000000000000000000000007bffffffffffffffffffffffffffffffffffffffffffffffffffffffff1916827bffffffffffffffffffffffffffffffffffffffffffffffffffffffff1916145b806104e857506104e7826110f6565b5b9050919050565b6060600080546104fe906123d4565b80601f016020809104026020016040519081016040528092919081815260200182805461052a906123d4565b80156105775780601f1061054c57610100808354040283529160200191610577565b820191906000526020600020905b81548152906001019060200180831161055a57829003601f168201915b5050505050905090565b600061058c82611160565b6004600083815260200190815260200160002060009054906101000a900473ffffffffffffffffffffffffffffffffffffffff169050919050565b60006105d2826107ec565b90508073ffffffffffffffffffffffffffffffffffffffff168373ffffffffffffffffffffffffffffffffffffffff161415610643576040517f08c379a000000000000000000000000000000000000000000000000000000000815260040161063a90612478565b60405180910390fd5b8073ffffffffffffffffffffffffffffffffffffffff166106626111ab565b73ffffffffffffffffffffffffffffffffffffffff16148061069157506106908161068b6111ab565b610e57565b5b6106d0576040517f08c379a00000000000000000000000000000000000000000000000000000000081526004016106c79061250a565b60405180910390fd5b6106da83836111b3565b505050565b6106f06106ea6111ab565b8261126c565b61072f576040517f08c379a00000000000000000000000000000000000000000000000000000000081526004016107269061259c565b60405180910390fd5b61073a838383611301565b505050565b6060600061076b8360405160200161075791906125f8565b604051602081830303815290604052610f7d565b90506040518060400160405280601a81526020017f646174613a696d6167652f7376672b786d6c3b6261736536342c000000000000815250816040516020016107b592919061260f565b604051602081830303815290604052915050919050565b6107e783838360405180602001604052806000815250610ac2565b505050565b6000806002600084815260200190815260200160002060009054906101000a900473ffffffffffffffffffffffffffffffffffffffff169050600073ffffffffffffffffffffffffffffffffffffffff168173ffffffffffffffffffffffffffffffffffffffff161415610895576040517f08c379a000000000000000000000000000000000000000000000000000000000815260040161088c9061267f565b60405180910390fd5b80915050919050565b6000600654905090565b60008073ffffffffffffffffffffffffffffffffffffffff168273ffffffffffffffffffffffffffffffffffffffff161415610919576040517f08c379a000000000000000000000000000000000000000000000000000000000815260040161091090612711565b60405180910390fd5b600360008373ffffffffffffffffffffffffffffffffffffffff1673ffffffffffffffffffffffffffffffffffffffff168152602001908152602001600020549050919050565b60606008805461096f906123d4565b80601f016020809104026020016040519081016040528092919081815260200182805461099b906123d4565b80156109e85780601f106109bd576101008083540402835291602001916109e8565b820191906000526020600020905b8154815290600101906020018083116109cb57829003601f168201915b5050505050905090565b606060018054610a01906123d4565b80601f0160208091040260200160405190810160405280929190818152602001828054610a2d906123d4565b8015610a7a5780601f10610a4f57610100808354040283529160200191610a7a565b820191906000526020600020905b815481529060010190602001808311610a5d57829003601f168201915b5050505050905090565b60007f0000000000000000000000000000000000000000000000000000000000000000905090565b610abe610ab76111ab565b8383611568565b5050565b610ad3610acd6111ab565b8361126c565b610b12576040517f08c379a0000000000000000000000000000000000000000000000000000000008152600401610b099061259c565b60405180910390fd5b610b1e848484846116d5565b50505050565b6060610b2f82611731565b610b6e576040517f08c379a0000000000000000000000000000000000000000000000000000000008152600401610b659061277d565b60405180910390fd5b600060405180602001604052806000815250905060007f000000000000000000000000000000000000000000000000000000000000000073ffffffffffffffffffffffffffffffffffffffff1663feaf968c6040518163ffffffff1660e01b815260040160a06040518083038186803b158015610bea57600080fd5b505afa158015610bfe573d6000803e3d6000fd5b505050506040513d601f19601f82011682018060405250810190610c229190612809565b50505091505060096000858152602001908152602001600020548112610cd45760088054610c4f906123d4565b80601f0160208091040260200160405190810160405280929190818152602001828054610c7b906123d4565b8015610cc85780601f10610c9d57610100808354040283529160200191610cc8565b820191906000526020600020905b815481529060010190602001808311610cab57829003601f168201915b50505050509150610d62565b60078054610ce1906123d4565b80601f0160208091040260200160405190810160405280929190818152602001828054610d0d906123d4565b8015610d5a5780601f10610d2f57610100808354040283529160200191610d5a565b820191906000526020600020905b815481529060010190602001808311610d3d57829003601f168201915b505050505091505b610d6a61179d565b610d9b610d756104ef565b84604051602001610d87929190612a26565b604051602081830303815290604052610f7d565b604051602001610dac92919061260f565b60405160208183030381529060405292505050919050565b8060096000600654815260200190815260200160002081905550610dea336006546117da565b60066000815480929190610dfd90612aa5565b91905055506006547f882d3b5a729a8bb95cf6c0083c99b42ecd9637123d4425bd7b768877fd8af8b082604051610e34919061234a565b60405180910390a250565b60096020528060005260406000206000915090505481565b6000600560008473ffffffffffffffffffffffffffffffffffffffff1673ffffffffffffffffffffffffffffffffffffffff16815260200190815260200160002060008373ffffffffffffffffffffffffffffffffffffffff1673ffffffffffffffffffffffffffffffffffffffff16815260200190815260200160002060009054906101000a900460ff16905092915050565b606060078054610efa906123d4565b80601f0160208091040260200160405190810160405280929190818152602001828054610f26906123d4565b8015610f735780601f10610f4857610100808354040283529160200191610f73565b820191906000526020600020905b815481529060010190602001808311610f5657829003601f168201915b5050505050905090565b6060600082511415610fa0576040518060200160405280600081525090506110f1565b60006040518060600160405280604081526020016130106040913990506000600360028551610fcf9190612aee565b610fd99190612b73565b6004610fe59190612ba4565b90506000602082610ff69190612aee565b67ffffffffffffffff81111561100f5761100e611f03565b5b6040519080825280601f01601f1916602001820160405280156110415781602001600182028036833780820191505090505b509050818152600183018586518101602084015b818310156110b0576003830192508251603f8160121c168501518253600182019150603f81600c1c168501518253600182019150603f8160061c168501518253600182019150603f8116850151825360018201915050611055565b6003895106600181146110ca57600281146110da576110e5565b613d3d60f01b60028303526110e5565b603d60f81b60018303525b50505050508093505050505b919050565b60007f01ffc9a7000000000000000000000000000000000000000000000000000000007bffffffffffffffffffffffffffffffffffffffffffffffffffffffff1916827bffffffffffffffffffffffffffffffffffffffffffffffffffffffff1916149050919050565b61116981611731565b6111a8576040517f08c379a000000000000000000000000000000000000000000000000000000000815260040161119f9061267f565b60405180910390fd5b50565b600033905090565b816004600083815260200190815260200160002060006101000a81548173ffffffffffffffffffffffffffffffffffffffff021916908373ffffffffffffffffffffffffffffffffffffffff160217905550808273ffffffffffffffffffffffffffffffffffffffff16611226836107ec565b73ffffffffffffffffffffffffffffffffffffffff167f8c5be1e5ebec7d5bd14f71427d1e84f3dd0314c0f7b2291e5b200ac8c7c3b92560405160405180910390a45050565b600080611278836107ec565b90508073ffffffffffffffffffffffffffffffffffffffff168473ffffffffffffffffffffffffffffffffffffffff1614806112ba57506112b98185610e57565b5b806112f857508373ffffffffffffffffffffffffffffffffffffffff166112e084610581565b73ffffffffffffffffffffffffffffffffffffffff16145b91505092915050565b8273ffffffffffffffffffffffffffffffffffffffff16611321826107ec565b73ffffffffffffffffffffffffffffffffffffffff1614611377576040517f08c379a000000000000000000000000000000000000000000000000000000000815260040161136e90612c70565b60405180910390fd5b600073ffffffffffffffffffffffffffffffffffffffff168273ffffffffffffffffffffffffffffffffffffffff1614156113e7576040517f08c379a00000000000000000000000000000000000000000000000000000000081526004016113de90612d02565b60405180910390fd5b6113f28383836117f8565b6113fd6000826111b3565b6001600360008573ffffffffffffffffffffffffffffffffffffffff1673ffffffffffffffffffffffffffffffffffffffff168152602001908152602001600020600082825461144d9190612d22565b925050819055506001600360008473ffffffffffffffffffffffffffffffffffffffff1673ffffffffffffffffffffffffffffffffffffffff16815260200190815260200160002060008282546114a49190612aee565b92505081905550816002600083815260200190815260200160002060006101000a81548173ffffffffffffffffffffffffffffffffffffffff021916908373ffffffffffffffffffffffffffffffffffffffff160217905550808273ffffffffffffffffffffffffffffffffffffffff168473ffffffffffffffffffffffffffffffffffffffff167fddf252ad1be2c89b69c2b068fc378daa952ba7f163c4a11628f55a4df523b3ef60405160405180910390a46115638383836117fd565b505050565b8173ffffffffffffffffffffffffffffffffffffffff168373ffffffffffffffffffffffffffffffffffffffff1614156115d7576040517f08c379a00000000000000000000000000000000000000000000000000000000081526004016115ce90612da2565b60405180910390fd5b80600560008573ffffffffffffffffffffffffffffffffffffffff1673ffffffffffffffffffffffffffffffffffffffff16815260200190815260200160002060008473ffffffffffffffffffffffffffffffffffffffff1673ffffffffffffffffffffffffffffffffffffffff16815260200190815260200160002060006101000a81548160ff0219169083151502179055508173ffffffffffffffffffffffffffffffffffffffff168373ffffffffffffffffffffffffffffffffffffffff167f17307eab39ab6107e8899845ad3d59bd9653f200f220920489ca2b5937696c31836040516116c89190611ca5565b60405180910390a3505050565b6116e0848484611301565b6116ec84848484611802565b61172b576040517f08c379a000000000000000000000000000000000000000000000000000000000815260040161172290612e34565b60405180910390fd5b50505050565b60008073ffffffffffffffffffffffffffffffffffffffff166002600084815260200190815260200160002060009054906101000a900473ffffffffffffffffffffffffffffffffffffffff1673ffffffffffffffffffffffffffffffffffffffff1614159050919050565b60606040518060400160405280601d81526020017f646174613a6170706c69636174696f6e2f6a736f6e3b6261736536342c000000815250905090565b6117f4828260405180602001604052806000815250611999565b5050565b505050565b505050565b60006118238473ffffffffffffffffffffffffffffffffffffffff166119f4565b1561198c578373ffffffffffffffffffffffffffffffffffffffff1663150b7a0261184c6111ab565b8786866040518563ffffffff1660e01b815260040161186e9493929190612ea9565b602060405180830381600087803b15801561188857600080fd5b505af19250505080156118b957506040513d601f19601f820116820180604052508101906118b69190612f0a565b60015b61193c573d80600081146118e9576040519150601f19603f3d011682016040523d82523d6000602084013e6118ee565b606091505b50600081511415611934576040517f08c379a000000000000000000000000000000000000000000000000000000000815260040161192b90612e34565b60405180910390fd5b805181602001fd5b63150b7a0260e01b7bffffffffffffffffffffffffffffffffffffffffffffffffffffffff1916817bffffffffffffffffffffffffffffffffffffffffffffffffffffffff191614915050611991565b600190505b949350505050565b6119a38383611a17565b6119b06000848484611802565b6119ef576040517f08c379a00000000000000000000000000000000000000000000000000000000081526004016119e690612e34565b60405180910390fd5b505050565b6000808273ffffffffffffffffffffffffffffffffffffffff163b119050919050565b600073ffffffffffffffffffffffffffffffffffffffff168273ffffffffffffffffffffffffffffffffffffffff161415611a87576040517f08c379a0000000000000000000000000000000000000000000000000000000008152600401611a7e90612f83565b60405180910390fd5b611a9081611731565b15611ad0576040517f08c379a0000000000000000000000000000000000000000000000000000000008152600401611ac790612fef565b60405180910390fd5b611adc600083836117f8565b6001600360008473ffffffffffffffffffffffffffffffffffffffff1673ffffffffffffffffffffffffffffffffffffffff1681526020019081526020016000206000828254611b2c9190612aee565b92505081905550816002600083815260200190815260200160002060006101000a81548173ffffffffffffffffffffffffffffffffffffffff021916908373ffffffffffffffffffffffffffffffffffffffff160217905550808273ffffffffffffffffffffffffffffffffffffffff16600073ffffffffffffffffffffffffffffffffffffffff167fddf252ad1be2c89b69c2b068fc378daa952ba7f163c4a11628f55a4df523b3ef60405160405180910390a4611bed600083836117fd565b5050565b6000604051905090565b600080fd5b600080fd5b60007fffffffff0000000000000000000000000000000000000000000000000000000082169050919050565b611c3a81611c05565b8114611c4557600080fd5b50565b600081359050611c5781611c31565b92915050565b600060208284031215611c7357611c72611bfb565b5b6000611c8184828501611c48565b91505092915050565b60008115159050919050565b611c9f81611c8a565b82525050565b6000602082019050611cba6000830184611c96565b92915050565b600081519050919050565b600082825260208201905092915050565b60005b83811015611cfa578082015181840152602081019050611cdf565b83811115611d09576000848401525b50505050565b6000601f19601f8301169050919050565b6000611d2b82611cc0565b611d358185611ccb565b9350611d45818560208601611cdc565b611d4e81611d0f565b840191505092915050565b60006020820190508181036000830152611d738184611d20565b905092915050565b6000819050919050565b611d8e81611d7b565b8114611d9957600080fd5b50565b600081359050611dab81611d85565b92915050565b600060208284031215611dc757611dc6611bfb565b5b6000611dd584828501611d9c565b91505092915050565b600073ffffffffffffffffffffffffffffffffffffffff82169050919050565b6000611e0982611dde565b9050919050565b611e1981611dfe565b82525050565b6000602082019050611e346000830184611e10565b92915050565b611e4381611dfe565b8114611e4e57600080fd5b50565b600081359050611e6081611e3a565b92915050565b60008060408385031215611e7d57611e7c611bfb565b5b6000611e8b85828601611e51565b9250506020611e9c85828601611d9c565b9150509250929050565b600080600060608486031215611ebf57611ebe611bfb565b5b6000611ecd86828701611e51565b9350506020611ede86828701611e51565b9250506040611eef86828701611d9c565b9150509250925092565b600080fd5b600080fd5b7f4e487b7100000000000000000000000000000000000000000000000000000000600052604160045260246000fd5b611f3b82611d0f565b810181811067ffffffffffffffff82111715611f5a57611f59611f03565b5b80604052505050565b6000611f6d611bf1565b9050611f798282611f32565b919050565b600067ffffffffffffffff821115611f9957611f98611f03565b5b611fa282611d0f565b9050602081019050919050565b82818337600083830152505050565b6000611fd1611fcc84611f7e565b611f63565b905082815260208101848484011115611fed57611fec611efe565b5b611ff8848285611faf565b509392505050565b600082601f83011261201557612014611ef9565b5b8135612025848260208601611fbe565b91505092915050565b60006020828403121561204457612043611bfb565b5b600082013567ffffffffffffffff81111561206257612061611c00565b5b61206e84828501612000565b91505092915050565b61208081611d7b565b82525050565b600060208201905061209b6000830184612077565b92915050565b6000602082840312156120b7576120b6611bfb565b5b60006120c584828501611e51565b91505092915050565b6000819050919050565b60006120f36120ee6120e984611dde565b6120ce565b611dde565b9050919050565b6000612105826120d8565b9050919050565b6000612117826120fa565b9050919050565b6121278161210c565b82525050565b6000602082019050612142600083018461211e565b92915050565b61215181611c8a565b811461215c57600080fd5b50565b60008135905061216e81612148565b92915050565b6000806040838503121561218b5761218a611bfb565b5b600061219985828601611e51565b92505060206121aa8582860161215f565b9150509250929050565b600067ffffffffffffffff8211156121cf576121ce611f03565b5b6121d882611d0f565b9050602081019050919050565b60006121f86121f3846121b4565b611f63565b90508281526020810184848401111561221457612213611efe565b5b61221f848285611faf565b509392505050565b600082601f83011261223c5761223b611ef9565b5b813561224c8482602086016121e5565b91505092915050565b6000806000806080858703121561226f5761226e611bfb565b5b600061227d87828801611e51565b945050602061228e87828801611e51565b935050604061229f87828801611d9c565b925050606085013567ffffffffffffffff8111156122c0576122bf611c00565b5b6122cc87828801612227565b91505092959194509250565b6000819050919050565b6122eb816122d8565b81146122f657600080fd5b50565b600081359050612308816122e2565b92915050565b60006020828403121561232457612323611bfb565b5b6000612332848285016122f9565b91505092915050565b612344816122d8565b82525050565b600060208201905061235f600083018461233b565b92915050565b6000806040838503121561237c5761237b611bfb565b5b600061238a85828601611e51565b925050602061239b85828601611e51565b9150509250929050565b7f4e487b7100000000000000000000000000000000000000000000000000000000600052602260045260246000fd5b600060028204905060018216806123ec57607f821691505b60208210811415612400576123ff6123a5565b5b50919050565b7f4552433732313a20617070726f76616c20746f2063757272656e74206f776e6560008201527f7200000000000000000000000000000000000000000000000000000000000000602082015250565b6000612462602183611ccb565b915061246d82612406565b604082019050919050565b6000602082019050818103600083015261249181612455565b9050919050565b7f4552433732313a20617070726f76652063616c6c6572206973206e6f7420746f60008201527f6b656e206f776e6572206e6f7220617070726f76656420666f7220616c6c0000602082015250565b60006124f4603e83611ccb565b91506124ff82612498565b604082019050919050565b60006020820190508181036000830152612523816124e7565b9050919050565b7f4552433732313a2063616c6c6572206973206e6f7420746f6b656e206f776e6560008201527f72206e6f7220617070726f766564000000000000000000000000000000000000602082015250565b6000612586602e83611ccb565b91506125918261252a565b604082019050919050565b600060208201905081810360008301526125b581612579565b9050919050565b600081905092915050565b60006125d282611cc0565b6125dc81856125bc565b93506125ec818560208601611cdc565b80840191505092915050565b600061260482846125c7565b915081905092915050565b600061261b82856125c7565b915061262782846125c7565b91508190509392505050565b7f4552433732313a20696e76616c696420746f6b656e2049440000000000000000600082015250565b6000612669601883611ccb565b915061267482612633565b602082019050919050565b600060208201905081810360008301526126988161265c565b9050919050565b7f4552433732313a2061646472657373207a65726f206973206e6f74206120766160008201527f6c6964206f776e65720000000000000000000000000000000000000000000000602082015250565b60006126fb602983611ccb565b91506127068261269f565b604082019050919050565b6000602082019050818103600083015261272a816126ee565b9050919050565b7f55524920717565727920666f72206e6f6e206578697374656e7420746f6b656e600082015250565b6000612767602083611ccb565b915061277282612731565b602082019050919050565b600060208201905081810360008301526127968161275a565b9050919050565b600069ffffffffffffffffffff82169050919050565b6127bc8161279d565b81146127c757600080fd5b50565b6000815190506127d9816127b3565b92915050565b6000815190506127ee816122e2565b92915050565b60008151905061280381611d85565b92915050565b600080600080600060a0868803121561282557612824611bfb565b5b6000612833888289016127ca565b9550506020612844888289016127df565b9450506040612855888289016127f4565b9350506060612866888289016127f4565b9250506080612877888289016127ca565b9150509295509295909350565b7f7b226e616d65223a220000000000000000000000000000000000000000000000600082015250565b60006128ba6009836125bc565b91506128c582612884565b600982019050919050565b7f222c226465736372697074696f6e223a22416e204e465420746861742063686160008201527f6e676573206261736564206f6e20636861696e6c696e6b2066656564222c0000602082015250565b600061292c603e836125bc565b9150612937826128d0565b603e82019050919050565b7f2261747472696275746573223a5b7b2274726169745f7479706522203a20226360008201527f6f6f6c6e657373222c2276616c7565223a3130307d5d2c2022696d616765223a60208201527f2200000000000000000000000000000000000000000000000000000000000000604082015250565b60006129c46041836125bc565b91506129cf82612942565b604182019050919050565b7f227d000000000000000000000000000000000000000000000000000000000000600082015250565b6000612a106002836125bc565b9150612a1b826129da565b600282019050919050565b6000612a31826128ad565b9150612a3d82856125c7565b9150612a488261291f565b9150612a53826129b7565b9150612a5f82846125c7565b9150612a6a82612a03565b91508190509392505050565b7f4e487b7100000000000000000000000000000000000000000000000000000000600052601160045260246000fd5b6000612ab082611d7b565b91507fffffffffffffffffffffffffffffffffffffffffffffffffffffffffffffffff821415612ae357612ae2612a76565b5b600182019050919050565b6000612af982611d7b565b9150612b0483611d7b565b9250827fffffffffffffffffffffffffffffffffffffffffffffffffffffffffffffffff03821115612b3957612b38612a76565b5b828201905092915050565b7f4e487b7100000000000000000000000000000000000000000000000000000000600052601260045260246000fd5b6000612b7e82611d7b565b9150612b8983611d7b565b925082612b9957612b98612b44565b5b828204905092915050565b6000612baf82611d7b565b9150612bba83611d7b565b9250817fffffffffffffffffffffffffffffffffffffffffffffffffffffffffffffffff0483118215151615612bf357612bf2612a76565b5b828202905092915050565b7f4552433732313a207472616e736665722066726f6d20696e636f72726563742060008201527f6f776e6572000000000000000000000000000000000000000000000000000000602082015250565b6000612c5a602583611ccb565b9150612c6582612bfe565b604082019050919050565b60006020820190508181036000830152612c8981612c4d565b9050919050565b7f4552433732313a207472616e7366657220746f20746865207a65726f2061646460008201527f7265737300000000000000000000000000000000000000000000000000000000602082015250565b6000612cec602483611ccb565b9150612cf782612c90565b604082019050919050565b60006020820190508181036000830152612d1b81612cdf565b9050919050565b6000612d2d82611d7b565b9150612d3883611d7b565b925082821015612d4b57612d4a612a76565b5b828203905092915050565b7f4552433732313a20617070726f766520746f2063616c6c657200000000000000600082015250565b6000612d8c601983611ccb565b9150612d9782612d56565b602082019050919050565b60006020820190508181036000830152612dbb81612d7f565b9050919050565b7f4552433732313a207472616e7366657220746f206e6f6e20455243373231526560008201527f63656976657220696d706c656d656e7465720000000000000000000000000000602082015250565b6000612e1e603283611ccb565b9150612e2982612dc2565b604082019050919050565b60006020820190508181036000830152612e4d81612e11565b9050919050565b600081519050919050565b600082825260208201905092915050565b6000612e7b82612e54565b612e858185612e5f565b9350612e95818560208601611cdc565b612e9e81611d0f565b840191505092915050565b6000608082019050612ebe6000830187611e10565b612ecb6020830186611e10565b612ed86040830185612077565b8181036060830152612eea8184612e70565b905095945050505050565b600081519050612f0481611c31565b92915050565b600060208284031215612f2057612f1f611bfb565b5b6000612f2e84828501612ef5565b91505092915050565b7f4552433732313a206d696e7420746f20746865207a65726f2061646472657373600082015250565b6000612f6d602083611ccb565b9150612f7882612f37565b602082019050919050565b60006020820190508181036000830152612f9c81612f60565b9050919050565b7f4552433732313a20746f6b656e20616c7265616479206d696e74656400000000600082015250565b6000612fd9601c83611ccb565b9150612fe482612fa3565b602082019050919050565b6000602082019050818103600083015261300881612fcc565b905091905056fe4142434445464748494a4b4c4d4e4f505152535455565758595a6162636465666768696a6b6c6d6e6f707172737475767778797a303132333435363738392b2fa26469706673582212206365ddc2ce0281256e9d8413760e0657c2c6095e8149bf8f680e511dab2e7f4e64736f6c634300080800334142434445464748494a4b4c4d4e4f505152535455565758595a6162636465666768696a6b6c6d6e6f707172737475767778797a303132333435363738392b2f",
  "linkReferences": {},
  "deployedLinkReferences": {}
}