{
  "_format": "hh-sol-artifact-1",
  "contractName": "RandomIPFSNFT",
  "sourceName": "contracts/RandomIPFSNFT.sol",
  "abi": [
    {
      "inputs": [
        {
          "internalType": "address",
          "name": "vrfCoordinatorV2",
          "type": "address"
        },
        {
          "internalType": "uint64",
          "name": "subscriptionId",
          "type": "uint64"
        },
        {
          "internalType": "bytes32",
          "name": "gasLane",
          "type": "bytes32"
        },
        {
          "internalType": "uint32",
          "name": "callbackGasLimit",
          "type": "uint32"
        },
        {
          "internalType": "string[3]",
          "name": "dogTokenUris",
          "type": "string[3]"
        },
        {
          "internalType": "uint256",
          "name": "mintFee",
          "type": "uint256"
        }
      ],
      "stateMutability": "nonpayable",
      "type": "constructor"
    },
    {
      "inputs": [
        {
          "internalType": "address",
          "name": "have",
          "type": "address"
        },
        {
          "internalType": "address",
          "name": "want",
          "type": "address"
        }
      ],
      "name": "OnlyCoordinatorCanFulfill",
      "type": "error"
    },
    {
      "inputs": [],
      "name": "RandomIPFSNFT__NeedMoreETHSent",
      "type": "error"
    },
    {
      "inputs": [],
      "name": "RandomIPFSNFT__RangeOutOfBounds",
      "type": "error"
    },
    {
      "inputs": [],
      "name": "RandomIPFSNFT__TransferFailed",
      "type": "error"
    },
    {
      "anonymous": false,
      "inputs": [
        {
          "indexed": true,
          "internalType": "address",
          "name": "owner",
          "type": "address"
        },
        {
          "indexed": true,
          "internalType": "address",
          "name": "approved",
          "type": "address"
        },
        {
          "indexed": true,
          "internalType": "uint256",
          "name": "tokenId",
          "type": "uint256"
        }
      ],
      "name": "Approval",
      "type": "event"
    },
    {
      "anonymous": false,
      "inputs": [
        {
          "indexed": true,
          "internalType": "address",
          "name": "owner",
          "type": "address"
        },
        {
          "indexed": true,
          "internalType": "address",
          "name": "operator",
          "type": "address"
        },
        {
          "indexed": false,
          "internalType": "bool",
          "name": "approved",
          "type": "bool"
        }
      ],
      "name": "ApprovalForAll",
      "type": "event"
    },
    {
      "anonymous": false,
      "inputs": [
        {
          "indexed": false,
          "internalType": "enum RandomIPFSNFT.Breed",
          "name": "dog",
          "type": "uint8"
        },
        {
          "indexed": false,
          "internalType": "address",
          "name": "minter",
          "type": "address"
        }
      ],
      "name": "NftMinted",
      "type": "event"
    },
    {
      "anonymous": false,
      "inputs": [
        {
          "indexed": true,
          "internalType": "uint256",
          "name": "requestId",
          "type": "uint256"
        },
        {
          "indexed": false,
          "internalType": "address",
          "name": "sender",
          "type": "address"
        }
      ],
      "name": "NftRequested",
      "type": "event"
    },
    {
      "anonymous": false,
      "inputs": [
        {
          "indexed": true,
          "internalType": "address",
          "name": "previousOwner",
          "type": "address"
        },
        {
          "indexed": true,
          "internalType": "address",
          "name": "newOwner",
          "type": "address"
        }
      ],
      "name": "OwnershipTransferred",
      "type": "event"
    },
    {
      "anonymous": false,
      "inputs": [
        {
          "indexed": true,
          "internalType": "address",
          "name": "from",
          "type": "address"
        },
        {
          "indexed": true,
          "internalType": "address",
          "name": "to",
          "type": "address"
        },
        {
          "indexed": true,
          "internalType": "uint256",
          "name": "tokenId",
          "type": "uint256"
        }
      ],
      "name": "Transfer",
      "type": "event"
    },
    {
      "inputs": [
        {
          "internalType": "address",
          "name": "to",
          "type": "address"
        },
        {
          "internalType": "uint256",
          "name": "tokenId",
          "type": "uint256"
        }
      ],
      "name": "approve",
      "outputs": [],
      "stateMutability": "nonpayable",
      "type": "function"
    },
    {
      "inputs": [
        {
          "internalType": "address",
          "name": "owner",
          "type": "address"
        }
      ],
      "name": "balanceOf",
      "outputs": [
        {
          "internalType": "uint256",
          "name": "",
          "type": "uint256"
        }
      ],
      "stateMutability": "view",
      "type": "function"
    },
    {
      "inputs": [
        {
          "internalType": "uint256",
          "name": "tokenId",
          "type": "uint256"
        }
      ],
      "name": "getApproved",
      "outputs": [
        {
          "internalType": "address",
          "name": "",
          "type": "address"
        }
      ],
      "stateMutability": "view",
      "type": "function"
    },
    {
      "inputs": [
        {
          "internalType": "uint256",
          "name": "moddedRng",
          "type": "uint256"
        }
      ],
      "name": "getBreedFromModdedRng",
      "outputs": [
        {
          "internalType": "enum RandomIPFSNFT.Breed",
          "name": "",
          "type": "uint8"
        }
      ],
      "stateMutability": "pure",
      "type": "function"
    },
    {
      "inputs": [],
      "name": "getChanceArray",
      "outputs": [
        {
          "internalType": "uint256[3]",
          "name": "",
          "type": "uint256[3]"
        }
      ],
      "stateMutability": "pure",
      "type": "function"
    },
    {
      "inputs": [
        {
          "internalType": "uint256",
          "name": "index",
          "type": "uint256"
        }
      ],
      "name": "getDogTokenURIs",
      "outputs": [
        {
          "internalType": "string",
          "name": "",
          "type": "string"
        }
      ],
      "stateMutability": "view",
      "type": "function"
    },
    {
      "inputs": [],
      "name": "getMintFee",
      "outputs": [
        {
          "internalType": "uint256",
          "name": "",
          "type": "uint256"
        }
      ],
      "stateMutability": "view",
      "type": "function"
    },
    {
      "inputs": [],
      "name": "getTokenCounter",
      "outputs": [
        {
          "internalType": "uint256",
          "name": "",
          "type": "uint256"
        }
      ],
      "stateMutability": "view",
      "type": "function"
    },
    {
      "inputs": [
        {
          "internalType": "address",
          "name": "owner",
          "type": "address"
        },
        {
          "internalType": "address",
          "name": "operator",
          "type": "address"
        }
      ],
      "name": "isApprovedForAll",
      "outputs": [
        {
          "internalType": "bool",
          "name": "",
          "type": "bool"
        }
      ],
      "stateMutability": "view",
      "type": "function"
    },
    {
      "inputs": [],
      "name": "name",
      "outputs": [
        {
          "internalType": "string",
          "name": "",
          "type": "string"
        }
      ],
      "stateMutability": "view",
      "type": "function"
    },
    {
      "inputs": [],
      "name": "owner",
      "outputs": [
        {
          "internalType": "address",
          "name": "",
          "type": "address"
        }
      ],
      "stateMutability": "view",
      "type": "function"
    },
    {
      "inputs": [
        {
          "internalType": "uint256",
          "name": "tokenId",
          "type": "uint256"
        }
      ],
      "name": "ownerOf",
      "outputs": [
        {
          "internalType": "address",
          "name": "",
          "type": "address"
        }
      ],
      "stateMutability": "view",
      "type": "function"
    },
    {
      "inputs": [
        {
          "internalType": "uint256",
          "name": "requestId",
          "type": "uint256"
        },
        {
          "internalType": "uint256[]",
          "name": "randomWords",
          "type": "uint256[]"
        }
      ],
      "name": "rawFulfillRandomWords",
      "outputs": [],
      "stateMutability": "nonpayable",
      "type": "function"
    },
    {
      "inputs": [],
      "name": "renounceOwnership",
      "outputs": [],
      "stateMutability": "nonpayable",
      "type": "function"
    },
    {
      "inputs": [],
      "name": "requestNft",
      "outputs": [
        {
          "internalType": "uint256",
          "name": "requestId",
          "type": "uint256"
        }
      ],
      "stateMutability": "payable",
      "type": "function"
    },
    {
      "inputs": [],
      "name": "s_tokenCounter",
      "outputs": [
        {
          "internalType": "uint256",
          "name": "",
          "type": "uint256"
        }
      ],
      "stateMutability": "view",
      "type": "function"
    },
    {
      "inputs": [
        {
          "internalType": "address",
          "name": "from",
          "type": "address"
        },
        {
          "internalType": "address",
          "name": "to",
          "type": "address"
        },
        {
          "internalType": "uint256",
          "name": "tokenId",
          "type": "uint256"
        }
      ],
      "name": "safeTransferFrom",
      "outputs": [],
      "stateMutability": "nonpayable",
      "type": "function"
    },
    {
      "inputs": [
        {
          "internalType": "address",
          "name": "from",
          "type": "address"
        },
        {
          "internalType": "address",
          "name": "to",
          "type": "address"
        },
        {
          "internalType": "uint256",
          "name": "tokenId",
          "type": "uint256"
        },
        {
          "internalType": "bytes",
          "name": "data",
          "type": "bytes"
        }
      ],
      "name": "safeTransferFrom",
      "outputs": [],
      "stateMutability": "nonpayable",
      "type": "function"
    },
    {
      "inputs": [
        {
          "internalType": "address",
          "name": "operator",
          "type": "address"
        },
        {
          "internalType": "bool",
          "name": "approved",
          "type": "bool"
        }
      ],
      "name": "setApprovalForAll",
      "outputs": [],
      "stateMutability": "nonpayable",
      "type": "function"
    },
    {
      "inputs": [
        {
          "internalType": "bytes4",
          "name": "interfaceId",
          "type": "bytes4"
        }
      ],
      "name": "supportsInterface",
      "outputs": [
        {
          "internalType": "bool",
          "name": "",
          "type": "bool"
        }
      ],
      "stateMutability": "view",
      "type": "function"
    },
    {
      "inputs": [],
      "name": "symbol",
      "outputs": [
        {
          "internalType": "string",
          "name": "",
          "type": "string"
        }
      ],
      "stateMutability": "view",
      "type": "function"
    },
    {
      "inputs": [
        {
          "internalType": "uint256",
          "name": "tokenId",
          "type": "uint256"
        }
      ],
      "name": "tokenURI",
      "outputs": [
        {
          "internalType": "string",
          "name": "",
          "type": "string"
        }
      ],
      "stateMutability": "view",
      "type": "function"
    },
    {
      "inputs": [
        {
          "internalType": "address",
          "name": "from",
          "type": "address"
        },
        {
          "internalType": "address",
          "name": "to",
          "type": "address"
        },
        {
          "internalType": "uint256",
          "name": "tokenId",
          "type": "uint256"
        }
      ],
      "name": "transferFrom",
      "outputs": [],
      "stateMutability": "nonpayable",
      "type": "function"
    },
    {
      "inputs": [
        {
          "internalType": "address",
          "name": "newOwner",
          "type": "address"
        }
      ],
      "name": "transferOwnership",
      "outputs": [],
      "stateMutability": "nonpayable",
      "type": "function"
    },
    {
      "inputs": [],
      "name": "withdraw",
      "outputs": [],
      "stateMutability": "nonpayable",
      "type": "function"
    }
  ],
  "bytecode": "0x6101406040523480156200001257600080fd5b50604051620042903803806200429083398181016040528101906200003891906200080b565b6040518060400160405280600f81526020017f52616e646f6d2049504653204e465400000000000000000000000000000000008152506040518060400160405280600381526020017f52494e0000000000000000000000000000000000000000000000000000000000815250878073ffffffffffffffffffffffffffffffffffffffff1660808173ffffffffffffffffffffffffffffffffffffffff1660601b81525050508160009080519060200190620000f59291906200029e565b5080600190805190602001906200010e9291906200029e565b5050506200013162000125620001d060201b60201c565b620001d860201b60201c565b8573ffffffffffffffffffffffffffffffffffffffff1660a08173ffffffffffffffffffffffffffffffffffffffff1660601b815250508467ffffffffffffffff1660c08167ffffffffffffffff1660c01b815250508360e081815250508263ffffffff166101008163ffffffff1660e01b8152505081600a906003620001ba9291906200032f565b508061012081815250505050505050506200092b565b600033905090565b6000600760009054906101000a900473ffffffffffffffffffffffffffffffffffffffff16905081600760006101000a81548173ffffffffffffffffffffffffffffffffffffffff021916908373ffffffffffffffffffffffffffffffffffffffff1602179055508173ffffffffffffffffffffffffffffffffffffffff168173ffffffffffffffffffffffffffffffffffffffff167f8be0079c531659141344cd1fd0a4f28419497f9722a3daafe3b4186f6b6457e060405160405180910390a35050565b828054620002ac90620008f5565b90600052602060002090601f016020900481019282620002d057600085556200031c565b82601f10620002eb57805160ff19168380011785556200031c565b828001600101855582156200031c579182015b828111156200031b578251825591602001919060010190620002fe565b5b5090506200032b919062000396565b5090565b82805482825590600052602060002090810192821562000383579160200282015b8281111562000382578251829080519060200190620003719291906200029e565b509160200191906001019062000350565b5b509050620003929190620003b5565b5090565b5b80821115620003b157600081600090555060010162000397565b5090565b5b80821115620003d95760008181620003cf9190620003dd565b50600101620003b6565b5090565b508054620003eb90620008f5565b6000825580601f10620003ff575062000420565b601f0160209004906000526020600020908101906200041f919062000396565b5b50565b6000604051905090565b600080fd5b600080fd5b600073ffffffffffffffffffffffffffffffffffffffff82169050919050565b6000620004648262000437565b9050919050565b620004768162000457565b81146200048257600080fd5b50565b60008151905062000496816200046b565b92915050565b600067ffffffffffffffff82169050919050565b620004bb816200049c565b8114620004c757600080fd5b50565b600081519050620004db81620004b0565b92915050565b6000819050919050565b620004f681620004e1565b81146200050257600080fd5b50565b6000815190506200051681620004eb565b92915050565b600063ffffffff82169050919050565b62000537816200051c565b81146200054357600080fd5b50565b60008151905062000557816200052c565b92915050565b600080fd5b6000601f19601f8301169050919050565b7f4e487b7100000000000000000000000000000000000000000000000000000000600052604160045260246000fd5b620005ad8262000562565b810181811067ffffffffffffffff82111715620005cf57620005ce62000573565b5b80604052505050565b6000620005e462000423565b9050620005f28282620005a2565b919050565b600067ffffffffffffffff82111562000615576200061462000573565b5b602082029050919050565b600080fd5b600080fd5b600067ffffffffffffffff82111562000648576200064762000573565b5b620006538262000562565b9050602081019050919050565b60005b838110156200068057808201518184015260208101905062000663565b8381111562000690576000848401525b50505050565b6000620006ad620006a7846200062a565b620005d8565b905082815260208101848484011115620006cc57620006cb62000625565b5b620006d984828562000660565b509392505050565b600082601f830112620006f957620006f86200055d565b5b81516200070b84826020860162000696565b91505092915050565b60006200072b6200072584620005f7565b620005d8565b9050806020840283018581111562000748576200074762000620565b5b835b818110156200079657805167ffffffffffffffff8111156200077157620007706200055d565b5b808601620007808982620006e1565b855260208501945050506020810190506200074a565b5050509392505050565b600082601f830112620007b857620007b76200055d565b5b6003620007c784828562000714565b91505092915050565b6000819050919050565b620007e581620007d0565b8114620007f157600080fd5b50565b6000815190506200080581620007da565b92915050565b60008060008060008060c087890312156200082b576200082a6200042d565b5b60006200083b89828a0162000485565b96505060206200084e89828a01620004ca565b95505060406200086189828a0162000505565b94505060606200087489828a0162000546565b935050608087015167ffffffffffffffff81111562000898576200089762000432565b5b620008a689828a01620007a0565b92505060a0620008b989828a01620007f4565b9150509295509295509295565b7f4e487b7100000000000000000000000000000000000000000000000000000000600052602260045260246000fd5b600060028204905060018216806200090e57607f821691505b60208210811415620009255762000924620008c6565b5b50919050565b60805160601c60a05160601c60c05160c01c60e0516101005160e01c610120516138fb6200099560003960008181610c6e0152610e4a01526000610f2401526000610ee001526000610f0101526000610ea40152600081816108c5015261091901526138fb6000f3fe6080604052600436106101665760003560e01c806370a08231116100d1578063a51cccf31161008a578063c87b56dd11610064578063c87b56dd1461050b578063e985e9c514610548578063f2fde38b14610585578063f4eb69c3146105ae57610166565b8063a51cccf314610487578063aa152491146104c4578063b88d4fde146104e257610166565b806370a0823114610389578063715018a6146103c65780637a5caab3146103dd5780638da5cb5b1461040857806395d89b4114610433578063a22cb4651461045e57610166565b806323b872dd1161012357806323b872dd1461028d5780633ccfd60b146102b657806342842e0e146102cd5780635dacf5f4146102f65780636352211e146103215780636e02007d1461035e57610166565b806301ffc9a71461016b57806306fdde03146101a8578063081812fc146101d3578063095ea7b3146102105780630b21a83b146102395780631fe543e314610264575b600080fd5b34801561017757600080fd5b50610192600480360381019061018d91906124a9565b6105eb565b60405161019f91906124f1565b60405180910390f35b3480156101b457600080fd5b506101bd6106cd565b6040516101ca91906125a5565b60405180910390f35b3480156101df57600080fd5b506101fa60048036038101906101f591906125fd565b61075f565b604051610207919061266b565b60405180910390f35b34801561021c57600080fd5b50610237600480360381019061023291906126b2565b6107a5565b005b34801561024557600080fd5b5061024e6108bd565b60405161025b9190612701565b60405180910390f35b34801561027057600080fd5b5061028b60048036038101906102869190612864565b6108c3565b005b34801561029957600080fd5b506102b460048036038101906102af91906128c0565b610983565b005b3480156102c257600080fd5b506102cb6109e3565b005b3480156102d957600080fd5b506102f460048036038101906102ef91906128c0565b610a97565b005b34801561030257600080fd5b5061030b610ab7565b60405161031891906129be565b60405180910390f35b34801561032d57600080fd5b50610348600480360381019061034391906125fd565b610ae2565b604051610355919061266b565b60405180910390f35b34801561036a57600080fd5b50610373610b94565b6040516103809190612701565b60405180910390f35b34801561039557600080fd5b506103b060048036038101906103ab91906129d9565b610b9e565b6040516103bd9190612701565b60405180910390f35b3480156103d257600080fd5b506103db610c56565b005b3480156103e957600080fd5b506103f2610c6a565b6040516103ff9190612701565b60405180910390f35b34801561041457600080fd5b5061041d610c92565b60405161042a919061266b565b60405180910390f35b34801561043f57600080fd5b50610448610cbc565b60405161045591906125a5565b60405180910390f35b34801561046a57600080fd5b5061048560048036038101906104809190612a32565b610d4e565b005b34801561049357600080fd5b506104ae60048036038101906104a991906125fd565b610d64565b6040516104bb9190612ae9565b60405180910390f35b6104cc610e46565b6040516104d99190612701565b60405180910390f35b3480156104ee57600080fd5b5061050960048036038101906105049190612bb9565b611046565b005b34801561051757600080fd5b50610532600480360381019061052d91906125fd565b6110a8565b60405161053f91906125a5565b60405180910390f35b34801561055457600080fd5b5061056f600480360381019061056a9190612c3c565b6111bb565b60405161057c91906124f1565b60405180910390f35b34801561059157600080fd5b506105ac60048036038101906105a791906129d9565b61124f565b005b3480156105ba57600080fd5b506105d560048036038101906105d091906125fd565b6112d3565b6040516105e291906125a5565b60405180910390f35b60007f80ac58cd000000000000000000000000000000000000000000000000000000007bffffffffffffffffffffffffffffffffffffffffffffffffffffffff1916827bffffffffffffffffffffffffffffffffffffffffffffffffffffffff191614806106b657507f5b5e139f000000000000000000000000000000000000000000000000000000007bffffffffffffffffffffffffffffffffffffffffffffffffffffffff1916827bffffffffffffffffffffffffffffffffffffffffffffffffffffffff1916145b806106c657506106c582611383565b5b9050919050565b6060600080546106dc90612cab565b80601f016020809104026020016040519081016040528092919081815260200182805461070890612cab565b80156107555780601f1061072a57610100808354040283529160200191610755565b820191906000526020600020905b81548152906001019060200180831161073857829003601f168201915b5050505050905090565b600061076a826113ed565b6004600083815260200190815260200160002060009054906101000a900473ffffffffffffffffffffffffffffffffffffffff169050919050565b60006107b082610ae2565b90508073ffffffffffffffffffffffffffffffffffffffff168373ffffffffffffffffffffffffffffffffffffffff161415610821576040517f08c379a000000000000000000000000000000000000000000000000000000000815260040161081890612d4f565b60405180910390fd5b8073ffffffffffffffffffffffffffffffffffffffff16610840611438565b73ffffffffffffffffffffffffffffffffffffffff16148061086f575061086e81610869611438565b6111bb565b5b6108ae576040517f08c379a00000000000000000000000000000000000000000000000000000000081526004016108a590612de1565b60405180910390fd5b6108b88383611440565b505050565b60095481565b7f000000000000000000000000000000000000000000000000000000000000000073ffffffffffffffffffffffffffffffffffffffff163373ffffffffffffffffffffffffffffffffffffffff161461097557337f00000000000000000000000000000000000000000000000000000000000000006040517f1cf993f400000000000000000000000000000000000000000000000000000000815260040161096c929190612e01565b60405180910390fd5b61097f82826114f9565b5050565b61099461098e611438565b82611698565b6109d3576040517f08c379a00000000000000000000000000000000000000000000000000000000081526004016109ca90612e9c565b60405180910390fd5b6109de83838361172d565b505050565b6109eb611994565b600047905060003373ffffffffffffffffffffffffffffffffffffffff1682604051610a1690612eed565b60006040518083038185875af1925050503d8060008114610a53576040519150601f19603f3d011682016040523d82523d6000602084013e610a58565b606091505b5050905080610a93576040517fff2f968b00000000000000000000000000000000000000000000000000000000815260040160405180910390fd5b5050565b610ab283838360405180602001604052806000815250611046565b505050565b610abf612378565b6040518060600160405280600a8152602001601e81526020016064815250905090565b6000806002600084815260200190815260200160002060009054906101000a900473ffffffffffffffffffffffffffffffffffffffff169050600073ffffffffffffffffffffffffffffffffffffffff168173ffffffffffffffffffffffffffffffffffffffff161415610b8b576040517f08c379a0000000000000000000000000000000000000000000000000000000008152600401610b8290612f4e565b60405180910390fd5b80915050919050565b6000600954905090565b60008073ffffffffffffffffffffffffffffffffffffffff168273ffffffffffffffffffffffffffffffffffffffff161415610c0f576040517f08c379a0000000000000000000000000000000000000000000000000000000008152600401610c0690612fe0565b60405180910390fd5b600360008373ffffffffffffffffffffffffffffffffffffffff1673ffffffffffffffffffffffffffffffffffffffff168152602001908152602001600020549050919050565b610c5e611994565b610c686000611a12565b565b60007f0000000000000000000000000000000000000000000000000000000000000000905090565b6000600760009054906101000a900473ffffffffffffffffffffffffffffffffffffffff16905090565b606060018054610ccb90612cab565b80601f0160208091040260200160405190810160405280929190818152602001828054610cf790612cab565b8015610d445780601f10610d1957610100808354040283529160200191610d44565b820191906000526020600020905b815481529060010190602001808311610d2757829003601f168201915b5050505050905090565b610d60610d59611438565b8383611ad8565b5050565b600080600090506000610d75610ab7565b905060005b6003811015610e0e57828510158015610db45750818160038110610da157610da0613000565b5b602002015183610db1919061305e565b85105b15610dd657806002811115610dcc57610dcb612a72565b5b9350505050610e41565b818160038110610de957610de8613000565b5b602002015183610df9919061305e565b92508080610e06906130b4565b915050610d7a565b506040517f4b145a0700000000000000000000000000000000000000000000000000000000815260040160405180910390fd5b919050565b60007f0000000000000000000000000000000000000000000000000000000000000000341015610ea2576040517f5a4ade7b00000000000000000000000000000000000000000000000000000000815260040160405180910390fd5b7f000000000000000000000000000000000000000000000000000000000000000073ffffffffffffffffffffffffffffffffffffffff16635d3b1d307f00000000000000000000000000000000000000000000000000000000000000007f000000000000000000000000000000000000000000000000000000000000000060037f000000000000000000000000000000000000000000000000000000000000000060016040518663ffffffff1660e01b8152600401610f65959493929190613175565b602060405180830381600087803b158015610f7f57600080fd5b505af1158015610f93573d6000803e3d6000fd5b505050506040513d601f19601f82011682018060405250810190610fb791906131dd565b9050336008600083815260200190815260200160002060006101000a81548173ffffffffffffffffffffffffffffffffffffffff021916908373ffffffffffffffffffffffffffffffffffffffff160217905550807ff873236e6cc0ecc5be1a9a35c95ee5b8d1ac4cc7bfef0cc5060391d6cc98e26b3360405161103b919061266b565b60405180910390a290565b611057611051611438565b83611698565b611096576040517f08c379a000000000000000000000000000000000000000000000000000000000815260040161108d90612e9c565b60405180910390fd5b6110a284848484611c45565b50505050565b60606110b3826113ed565b60006006600084815260200190815260200160002080546110d390612cab565b80601f01602080910402602001604051908101604052809291908181526020018280546110ff90612cab565b801561114c5780601f106111215761010080835404028352916020019161114c565b820191906000526020600020905b81548152906001019060200180831161112f57829003601f168201915b50505050509050600061115d611ca1565b90506000815114156111735781925050506111b6565b6000825111156111a8578082604051602001611190929190613246565b604051602081830303815290604052925050506111b6565b6111b184611cb8565b925050505b919050565b6000600560008473ffffffffffffffffffffffffffffffffffffffff1673ffffffffffffffffffffffffffffffffffffffff16815260200190815260200160002060008373ffffffffffffffffffffffffffffffffffffffff1673ffffffffffffffffffffffffffffffffffffffff16815260200190815260200160002060009054906101000a900460ff16905092915050565b611257611994565b600073ffffffffffffffffffffffffffffffffffffffff168173ffffffffffffffffffffffffffffffffffffffff1614156112c7576040517f08c379a00000000000000000000000000000000000000000000000000000000081526004016112be906132dc565b60405180910390fd5b6112d081611a12565b50565b6060600a82815481106112e9576112e8613000565b5b9060005260206000200180546112fe90612cab565b80601f016020809104026020016040519081016040528092919081815260200182805461132a90612cab565b80156113775780601f1061134c57610100808354040283529160200191611377565b820191906000526020600020905b81548152906001019060200180831161135a57829003601f168201915b50505050509050919050565b60007f01ffc9a7000000000000000000000000000000000000000000000000000000007bffffffffffffffffffffffffffffffffffffffffffffffffffffffff1916827bffffffffffffffffffffffffffffffffffffffffffffffffffffffff1916149050919050565b6113f681611d20565b611435576040517f08c379a000000000000000000000000000000000000000000000000000000000815260040161142c90612f4e565b60405180910390fd5b50565b600033905090565b816004600083815260200190815260200160002060006101000a81548173ffffffffffffffffffffffffffffffffffffffff021916908373ffffffffffffffffffffffffffffffffffffffff160217905550808273ffffffffffffffffffffffffffffffffffffffff166114b383610ae2565b73ffffffffffffffffffffffffffffffffffffffff167f8c5be1e5ebec7d5bd14f71427d1e84f3dd0314c0f7b2291e5b200ac8c7c3b92560405160405180910390a45050565b60006008600084815260200190815260200160002060009054906101000a900473ffffffffffffffffffffffffffffffffffffffff1690506000600954905060016009600082825461154b919061305e565b92505081905550600060648460008151811061156a57611569613000565b5b602002602001015161157c919061332b565b9050600061158982610d64565b90506115958484611d8c565b61165783600a8360028111156115ae576115ad612a72565b5b815481106115bf576115be613000565b5b9060005260206000200180546115d490612cab565b80601f016020809104026020016040519081016040528092919081815260200182805461160090612cab565b801561164d5780601f106116225761010080835404028352916020019161164d565b820191906000526020600020905b81548152906001019060200180831161163057829003601f168201915b5050505050611daa565b7f8a269f26b688e110e9cbd887d163dab35cae678fa353a0292de532c0cac1ecdc818560405161168892919061335c565b60405180910390a1505050505050565b6000806116a483610ae2565b90508073ffffffffffffffffffffffffffffffffffffffff168473ffffffffffffffffffffffffffffffffffffffff1614806116e657506116e581856111bb565b5b8061172457508373ffffffffffffffffffffffffffffffffffffffff1661170c8461075f565b73ffffffffffffffffffffffffffffffffffffffff16145b91505092915050565b8273ffffffffffffffffffffffffffffffffffffffff1661174d82610ae2565b73ffffffffffffffffffffffffffffffffffffffff16146117a3576040517f08c379a000000000000000000000000000000000000000000000000000000000815260040161179a906133f7565b60405180910390fd5b600073ffffffffffffffffffffffffffffffffffffffff168273ffffffffffffffffffffffffffffffffffffffff161415611813576040517f08c379a000000000000000000000000000000000000000000000000000000000815260040161180a90613489565b60405180910390fd5b61181e838383611e1e565b611829600082611440565b6001600360008573ffffffffffffffffffffffffffffffffffffffff1673ffffffffffffffffffffffffffffffffffffffff168152602001908152602001600020600082825461187991906134a9565b925050819055506001600360008473ffffffffffffffffffffffffffffffffffffffff1673ffffffffffffffffffffffffffffffffffffffff16815260200190815260200160002060008282546118d0919061305e565b92505081905550816002600083815260200190815260200160002060006101000a81548173ffffffffffffffffffffffffffffffffffffffff021916908373ffffffffffffffffffffffffffffffffffffffff160217905550808273ffffffffffffffffffffffffffffffffffffffff168473ffffffffffffffffffffffffffffffffffffffff167fddf252ad1be2c89b69c2b068fc378daa952ba7f163c4a11628f55a4df523b3ef60405160405180910390a461198f838383611e23565b505050565b61199c611438565b73ffffffffffffffffffffffffffffffffffffffff166119ba610c92565b73ffffffffffffffffffffffffffffffffffffffff1614611a10576040517f08c379a0000000000000000000000000000000000000000000000000000000008152600401611a0790613529565b60405180910390fd5b565b6000600760009054906101000a900473ffffffffffffffffffffffffffffffffffffffff16905081600760006101000a81548173ffffffffffffffffffffffffffffffffffffffff021916908373ffffffffffffffffffffffffffffffffffffffff1602179055508173ffffffffffffffffffffffffffffffffffffffff168173ffffffffffffffffffffffffffffffffffffffff167f8be0079c531659141344cd1fd0a4f28419497f9722a3daafe3b4186f6b6457e060405160405180910390a35050565b8173ffffffffffffffffffffffffffffffffffffffff168373ffffffffffffffffffffffffffffffffffffffff161415611b47576040517f08c379a0000000000000000000000000000000000000000000000000000000008152600401611b3e90613595565b60405180910390fd5b80600560008573ffffffffffffffffffffffffffffffffffffffff1673ffffffffffffffffffffffffffffffffffffffff16815260200190815260200160002060008473ffffffffffffffffffffffffffffffffffffffff1673ffffffffffffffffffffffffffffffffffffffff16815260200190815260200160002060006101000a81548160ff0219169083151502179055508173ffffffffffffffffffffffffffffffffffffffff168373ffffffffffffffffffffffffffffffffffffffff167f17307eab39ab6107e8899845ad3d59bd9653f200f220920489ca2b5937696c3183604051611c3891906124f1565b60405180910390a3505050565b611c5084848461172d565b611c5c84848484611e28565b611c9b576040517f08c379a0000000000000000000000000000000000000000000000000000000008152600401611c9290613627565b60405180910390fd5b50505050565b606060405180602001604052806000815250905090565b6060611cc3826113ed565b6000611ccd611ca1565b90506000815111611ced5760405180602001604052806000815250611d18565b80611cf784611fbf565b604051602001611d08929190613246565b6040516020818303038152906040525b915050919050565b60008073ffffffffffffffffffffffffffffffffffffffff166002600084815260200190815260200160002060009054906101000a900473ffffffffffffffffffffffffffffffffffffffff1673ffffffffffffffffffffffffffffffffffffffff1614159050919050565b611da6828260405180602001604052806000815250612120565b5050565b611db382611d20565b611df2576040517f08c379a0000000000000000000000000000000000000000000000000000000008152600401611de9906136b9565b60405180910390fd5b80600660008481526020019081526020016000209080519060200190611e1992919061239a565b505050565b505050565b505050565b6000611e498473ffffffffffffffffffffffffffffffffffffffff1661217b565b15611fb2578373ffffffffffffffffffffffffffffffffffffffff1663150b7a02611e72611438565b8786866040518563ffffffff1660e01b8152600401611e94949392919061372e565b602060405180830381600087803b158015611eae57600080fd5b505af1925050508015611edf57506040513d601f19601f82011682018060405250810190611edc919061378f565b60015b611f62573d8060008114611f0f576040519150601f19603f3d011682016040523d82523d6000602084013e611f14565b606091505b50600081511415611f5a576040517f08c379a0000000000000000000000000000000000000000000000000000000008152600401611f5190613627565b60405180910390fd5b805181602001fd5b63150b7a0260e01b7bffffffffffffffffffffffffffffffffffffffffffffffffffffffff1916817bffffffffffffffffffffffffffffffffffffffffffffffffffffffff191614915050611fb7565b600190505b949350505050565b60606000821415612007576040518060400160405280600181526020017f3000000000000000000000000000000000000000000000000000000000000000815250905061211b565b600082905060005b60008214612039578080612022906130b4565b915050600a8261203291906137bc565b915061200f565b60008167ffffffffffffffff81111561205557612054612721565b5b6040519080825280601f01601f1916602001820160405280156120875781602001600182028036833780820191505090505b5090505b60008514612114576001826120a091906134a9565b9150600a856120af919061332b565b60306120bb919061305e565b60f81b8183815181106120d1576120d0613000565b5b60200101907effffffffffffffffffffffffffffffffffffffffffffffffffffffffffffff1916908160001a905350600a8561210d91906137bc565b945061208b565b8093505050505b919050565b61212a838361219e565b6121376000848484611e28565b612176576040517f08c379a000000000000000000000000000000000000000000000000000000000815260040161216d90613627565b60405180910390fd5b505050565b6000808273ffffffffffffffffffffffffffffffffffffffff163b119050919050565b600073ffffffffffffffffffffffffffffffffffffffff168273ffffffffffffffffffffffffffffffffffffffff16141561220e576040517f08c379a000000000000000000000000000000000000000000000000000000000815260040161220590613839565b60405180910390fd5b61221781611d20565b15612257576040517f08c379a000000000000000000000000000000000000000000000000000000000815260040161224e906138a5565b60405180910390fd5b61226360008383611e1e565b6001600360008473ffffffffffffffffffffffffffffffffffffffff1673ffffffffffffffffffffffffffffffffffffffff16815260200190815260200160002060008282546122b3919061305e565b92505081905550816002600083815260200190815260200160002060006101000a81548173ffffffffffffffffffffffffffffffffffffffff021916908373ffffffffffffffffffffffffffffffffffffffff160217905550808273ffffffffffffffffffffffffffffffffffffffff16600073ffffffffffffffffffffffffffffffffffffffff167fddf252ad1be2c89b69c2b068fc378daa952ba7f163c4a11628f55a4df523b3ef60405160405180910390a461237460008383611e23565b5050565b6040518060600160405280600390602082028036833780820191505090505090565b8280546123a690612cab565b90600052602060002090601f0160209004810192826123c8576000855561240f565b82601f106123e157805160ff191683800117855561240f565b8280016001018555821561240f579182015b8281111561240e5782518255916020019190600101906123f3565b5b50905061241c9190612420565b5090565b5b80821115612439576000816000905550600101612421565b5090565b6000604051905090565b600080fd5b600080fd5b60007fffffffff0000000000000000000000000000000000000000000000000000000082169050919050565b61248681612451565b811461249157600080fd5b50565b6000813590506124a38161247d565b92915050565b6000602082840312156124bf576124be612447565b5b60006124cd84828501612494565b91505092915050565b60008115159050919050565b6124eb816124d6565b82525050565b600060208201905061250660008301846124e2565b92915050565b600081519050919050565b600082825260208201905092915050565b60005b8381101561254657808201518184015260208101905061252b565b83811115612555576000848401525b50505050565b6000601f19601f8301169050919050565b60006125778261250c565b6125818185612517565b9350612591818560208601612528565b61259a8161255b565b840191505092915050565b600060208201905081810360008301526125bf818461256c565b905092915050565b6000819050919050565b6125da816125c7565b81146125e557600080fd5b50565b6000813590506125f7816125d1565b92915050565b60006020828403121561261357612612612447565b5b6000612621848285016125e8565b91505092915050565b600073ffffffffffffffffffffffffffffffffffffffff82169050919050565b60006126558261262a565b9050919050565b6126658161264a565b82525050565b6000602082019050612680600083018461265c565b92915050565b61268f8161264a565b811461269a57600080fd5b50565b6000813590506126ac81612686565b92915050565b600080604083850312156126c9576126c8612447565b5b60006126d78582860161269d565b92505060206126e8858286016125e8565b9150509250929050565b6126fb816125c7565b82525050565b600060208201905061271660008301846126f2565b92915050565b600080fd5b7f4e487b7100000000000000000000000000000000000000000000000000000000600052604160045260246000fd5b6127598261255b565b810181811067ffffffffffffffff8211171561277857612777612721565b5b80604052505050565b600061278b61243d565b90506127978282612750565b919050565b600067ffffffffffffffff8211156127b7576127b6612721565b5b602082029050602081019050919050565b600080fd5b60006127e06127db8461279c565b612781565b90508083825260208201905060208402830185811115612803576128026127c8565b5b835b8181101561282c578061281888826125e8565b845260208401935050602081019050612805565b5050509392505050565b600082601f83011261284b5761284a61271c565b5b813561285b8482602086016127cd565b91505092915050565b6000806040838503121561287b5761287a612447565b5b6000612889858286016125e8565b925050602083013567ffffffffffffffff8111156128aa576128a961244c565b5b6128b685828601612836565b9150509250929050565b6000806000606084860312156128d9576128d8612447565b5b60006128e78682870161269d565b93505060206128f88682870161269d565b9250506040612909868287016125e8565b9150509250925092565b600060039050919050565b600081905092915050565b6000819050919050565b61293c816125c7565b82525050565b600061294e8383612933565b60208301905092915050565b6000602082019050919050565b61297081612913565b61297a818461291e565b925061298582612929565b8060005b838110156129b657815161299d8782612942565b96506129a88361295a565b925050600181019050612989565b505050505050565b60006060820190506129d36000830184612967565b92915050565b6000602082840312156129ef576129ee612447565b5b60006129fd8482850161269d565b91505092915050565b612a0f816124d6565b8114612a1a57600080fd5b50565b600081359050612a2c81612a06565b92915050565b60008060408385031215612a4957612a48612447565b5b6000612a578582860161269d565b9250506020612a6885828601612a1d565b9150509250929050565b7f4e487b7100000000000000000000000000000000000000000000000000000000600052602160045260246000fd5b60038110612ab257612ab1612a72565b5b50565b6000819050612ac382612aa1565b919050565b6000612ad382612ab5565b9050919050565b612ae381612ac8565b82525050565b6000602082019050612afe6000830184612ada565b92915050565b600080fd5b600067ffffffffffffffff821115612b2457612b23612721565b5b612b2d8261255b565b9050602081019050919050565b82818337600083830152505050565b6000612b5c612b5784612b09565b612781565b905082815260208101848484011115612b7857612b77612b04565b5b612b83848285612b3a565b509392505050565b600082601f830112612ba057612b9f61271c565b5b8135612bb0848260208601612b49565b91505092915050565b60008060008060808587031215612bd357612bd2612447565b5b6000612be18782880161269d565b9450506020612bf28782880161269d565b9350506040612c03878288016125e8565b925050606085013567ffffffffffffffff811115612c2457612c2361244c565b5b612c3087828801612b8b565b91505092959194509250565b60008060408385031215612c5357612c52612447565b5b6000612c618582860161269d565b9250506020612c728582860161269d565b9150509250929050565b7f4e487b7100000000000000000000000000000000000000000000000000000000600052602260045260246000fd5b60006002820490506001821680612cc357607f821691505b60208210811415612cd757612cd6612c7c565b5b50919050565b7f4552433732313a20617070726f76616c20746f2063757272656e74206f776e6560008201527f7200000000000000000000000000000000000000000000000000000000000000602082015250565b6000612d39602183612517565b9150612d4482612cdd565b604082019050919050565b60006020820190508181036000830152612d6881612d2c565b9050919050565b7f4552433732313a20617070726f76652063616c6c6572206973206e6f7420746f60008201527f6b656e206f776e6572206e6f7220617070726f76656420666f7220616c6c0000602082015250565b6000612dcb603e83612517565b9150612dd682612d6f565b604082019050919050565b60006020820190508181036000830152612dfa81612dbe565b9050919050565b6000604082019050612e16600083018561265c565b612e23602083018461265c565b9392505050565b7f4552433732313a2063616c6c6572206973206e6f7420746f6b656e206f776e6560008201527f72206e6f7220617070726f766564000000000000000000000000000000000000602082015250565b6000612e86602e83612517565b9150612e9182612e2a565b604082019050919050565b60006020820190508181036000830152612eb581612e79565b9050919050565b600081905092915050565b50565b6000612ed7600083612ebc565b9150612ee282612ec7565b600082019050919050565b6000612ef882612eca565b9150819050919050565b7f4552433732313a20696e76616c696420746f6b656e2049440000000000000000600082015250565b6000612f38601883612517565b9150612f4382612f02565b602082019050919050565b60006020820190508181036000830152612f6781612f2b565b9050919050565b7f4552433732313a2061646472657373207a65726f206973206e6f74206120766160008201527f6c6964206f776e65720000000000000000000000000000000000000000000000602082015250565b6000612fca602983612517565b9150612fd582612f6e565b604082019050919050565b60006020820190508181036000830152612ff981612fbd565b9050919050565b7f4e487b7100000000000000000000000000000000000000000000000000000000600052603260045260246000fd5b7f4e487b7100000000000000000000000000000000000000000000000000000000600052601160045260246000fd5b6000613069826125c7565b9150613074836125c7565b9250827fffffffffffffffffffffffffffffffffffffffffffffffffffffffffffffffff038211156130a9576130a861302f565b5b828201905092915050565b60006130bf826125c7565b91507fffffffffffffffffffffffffffffffffffffffffffffffffffffffffffffffff8214156130f2576130f161302f565b5b600182019050919050565b6000819050919050565b613110816130fd565b82525050565b600067ffffffffffffffff82169050919050565b61313381613116565b82525050565b600061ffff82169050919050565b61315081613139565b82525050565b600063ffffffff82169050919050565b61316f81613156565b82525050565b600060a08201905061318a6000830188613107565b613197602083018761312a565b6131a46040830186613147565b6131b16060830185613166565b6131be6080830184613166565b9695505050505050565b6000815190506131d7816125d1565b92915050565b6000602082840312156131f3576131f2612447565b5b6000613201848285016131c8565b91505092915050565b600081905092915050565b60006132208261250c565b61322a818561320a565b935061323a818560208601612528565b80840191505092915050565b60006132528285613215565b915061325e8284613215565b91508190509392505050565b7f4f776e61626c653a206e6577206f776e657220697320746865207a65726f206160008201527f6464726573730000000000000000000000000000000000000000000000000000602082015250565b60006132c6602683612517565b91506132d18261326a565b604082019050919050565b600060208201905081810360008301526132f5816132b9565b9050919050565b7f4e487b7100000000000000000000000000000000000000000000000000000000600052601260045260246000fd5b6000613336826125c7565b9150613341836125c7565b925082613351576133506132fc565b5b828206905092915050565b60006040820190506133716000830185612ada565b61337e602083018461265c565b9392505050565b7f4552433732313a207472616e736665722066726f6d20696e636f72726563742060008201527f6f776e6572000000000000000000000000000000000000000000000000000000602082015250565b60006133e1602583612517565b91506133ec82613385565b604082019050919050565b60006020820190508181036000830152613410816133d4565b9050919050565b7f4552433732313a207472616e7366657220746f20746865207a65726f2061646460008201527f7265737300000000000000000000000000000000000000000000000000000000602082015250565b6000613473602483612517565b915061347e82613417565b604082019050919050565b600060208201905081810360008301526134a281613466565b9050919050565b60006134b4826125c7565b91506134bf836125c7565b9250828210156134d2576134d161302f565b5b828203905092915050565b7f4f776e61626c653a2063616c6c6572206973206e6f7420746865206f776e6572600082015250565b6000613513602083612517565b915061351e826134dd565b602082019050919050565b6000602082019050818103600083015261354281613506565b9050919050565b7f4552433732313a20617070726f766520746f2063616c6c657200000000000000600082015250565b600061357f601983612517565b915061358a82613549565b602082019050919050565b600060208201905081810360008301526135ae81613572565b9050919050565b7f4552433732313a207472616e7366657220746f206e6f6e20455243373231526560008201527f63656976657220696d706c656d656e7465720000000000000000000000000000602082015250565b6000613611603283612517565b915061361c826135b5565b604082019050919050565b6000602082019050818103600083015261364081613604565b9050919050565b7f45524337323155524953746f726167653a2055524920736574206f66206e6f6e60008201527f6578697374656e7420746f6b656e000000000000000000000000000000000000602082015250565b60006136a3602e83612517565b91506136ae82613647565b604082019050919050565b600060208201905081810360008301526136d281613696565b9050919050565b600081519050919050565b600082825260208201905092915050565b6000613700826136d9565b61370a81856136e4565b935061371a818560208601612528565b6137238161255b565b840191505092915050565b6000608082019050613743600083018761265c565b613750602083018661265c565b61375d60408301856126f2565b818103606083015261376f81846136f5565b905095945050505050565b6000815190506137898161247d565b92915050565b6000602082840312156137a5576137a4612447565b5b60006137b38482850161377a565b91505092915050565b60006137c7826125c7565b91506137d2836125c7565b9250826137e2576137e16132fc565b5b828204905092915050565b7f4552433732313a206d696e7420746f20746865207a65726f2061646472657373600082015250565b6000613823602083612517565b915061382e826137ed565b602082019050919050565b6000602082019050818103600083015261385281613816565b9050919050565b7f4552433732313a20746f6b656e20616c7265616479206d696e74656400000000600082015250565b600061388f601c83612517565b915061389a82613859565b602082019050919050565b600060208201905081810360008301526138be81613882565b905091905056fea264697066735822122079871f4e8c41bdbbf7eca75d0cdea0ef303d79e44b6ef0ba5fba78cc1fe849e164736f6c63430008080033",
  "linkReferences": {},
  "deployedLinkReferences": {}
}